:020000040800F2
:1000000040040020450100082D1200087906000870
:1000100029120008DD0100086D1900080000000029
:10002000000000000000000000000000691500084A
:100030008103000800000000DD120008A916000876
:100040005F0100085F0100085F0100085F01000810
:100050005F0100085F0100085F0100085F01000800
:100060005F0100085F0100085F0100085F010008F0
:100070005F0100085F0100085F0100085F010008E0
:100080005F0100085F0100085F0100085F010008D0
:100090005F0100085F0100085F0100085F010008C0
:1000A0005F0100085F0100085F0100085F010008B0
:1000B0005F0100085F010008211700085F010008C8
:1000C0005F0100085F0100085F0100085F01000890
:1000D0005F0100085F0100085F0100085F01000880
:1000E000D10300085F0100085F0100085F010008FC
:1000F0005F0100085F0100085F0100085F01000860
:100100005F0100085F0100085F0100085F0100084F
:100110005F0100085F0100085F0100085F0100083F
:100120005F0100085F0100085F0100085F0100082F
:10013000DFF80CD000F040F800480047811D0008AF
:10014000400400200648804706480047FEE7FEE7D7
:10015000FEE7FEE7FEE7FEE7FEE7FEE7FEE7FEE777
:10016000C11600083101000840EA01039B0703D0D3
:1001700009E008C9121F08C0042AFAD203E011F8E6
:10018000013B00F8013B521EF9D2704730B50B46D7
:10019000014600202022012409E021FA02F59D42B7
:1001A00005D303FA02F5491B04FA02F52844151E8B
:1001B000A2F10102F1DC30BD064C074D06E0E0681B
:1001C00040F0010394E8070098471034AC42F6D39E
:1001D000FFF7B2FFCC6D0008EC6D000800BFFEE732
:1001E00010B5002400F02EFA04E0601CC4B2012017
:1001F00000F0DCF820210F4800F019FA08B9642C4F
:10020000F3DB642C01DB002010BD002404E0601C43
:10021000C4B2012000F0CAF82021064800F007FA15
:1002200008B1642CF3DB642C01DB0020ECE7012037
:10023000EAE700000010014010B50121102001F094
:10024000B9F82020064908801020C8700120887065
:10025000044800F061F900F07BF8FFF7C1FF10BD22
:100260000E0000200010014010B5002404E0601CC6
:10027000C4B2012000F09AF82021104800F0D7F90C
:1002800008B1642CF3DB002404E0601CC4B201203C
:1002900000F08CF82021094800F0C9F908B9642C55
:1002A000F3DB1E2000F082F82021044800F0BFF9A3
:1002B00008B1012010BD0020FCE700000010014043
:1002C00070B50024002506E06006040EFFF7CCFFA1
:1002D0000443681CC5B2082DF6DB204670BD2DE92D
:1002E000FC4105460E461746984600F031F8FFF7E8
:1002F00077FF012826D1002405E0FFF7E1FF0DF884
:100300000400601CC4B2052CF7DB9DF800009DF8CA
:10031000011008449DF8021008449DF80310084499
:100320009DF80410884210D19DF8000030709DF8AF
:10033000010088F800009DF8020028709DF8030075
:10034000387002E00020BDE8FC810120FBE70000DE
:1003500010B500F083F92021084800F071F914204D
:1003600000F010F82021054800F084F91E2000F06C
:100370001DF82021014800F063F910BD0010014074
:100380007047000010B5044606480460064801F0B6
:1003900061F900BF034800680028FBD14FF0E0215D
:1003A000086110BD140000204019010010B504467A
:1003B00006480460482001F04DF900BF034800687A
:1003C0000028FBD14FF0E021086110BD140000208F
:1003D00010B54FF4805000F021F860B100F080FFBC
:1003E00005A001F0C5FA4FF4805000F00BF84FF46F
:1003F000805000F00DF810BDBDF8C8EBD6D0B6CFD8
:100400000D0A000001490860704700001404014013
:1004100001490860704700001404014001460020B3
:100420000022074B1B6803EA0102054B14331B68CB
:100430000B4013B10AB1012000E00020704700001A
:1004400000040140002123498279002A3AD00A465B
:10045000126803689A430B461A600A1D1268036803
:100460009A430B1D1A60027911440A6803681A4303
:100470000A60184A0832126803689A43154B083319
:100480001A601A1D126803689A43124B0C331A60E3
:100490004279102A0ED11A1F126803681A430D4BB5
:1004A00008331A601A1D126803681A43094B0C338B
:1004B0001A600DE00749427911440A6803681A433B
:1004C0000A6005E0027911440A6803689A430A60E9
:1004D000704700000004014030B500228B071C0F5C
:1004E0000F2303FA04F20B4B8C1053F82430934380
:1004F000084C8D1044F8253023468C1053F82430D6
:100500008C07240F00FA04F42343024C8D1044F8A6
:10051000253030BD080001402DE9F041024600259C
:100520000026002000230024002791F803C00CF0CF
:100530000F0591F803C00CF0100CBCF1000F03D0B4
:1005400091F802C04CEA050591F800C0BCF1000F1B
:1005500031D0146800202BE04FF0010C0CFA00F3AE
:10056000B1F800C00CEA03069E4220D183004FF090
:100570000F0C0CFA03F7BC4305FA03FC4CEA040425
:1005800091F803C0BCF1280F06D14FF0010C0CFA12
:1005900000FCC2F814C00AE091F803C0BCF1480F97
:1005A00005D14FF0010C0CFA00FCC2F810C0401C41
:1005B0000828D1D31460B1F800C0BCF1FF0F34DDBE
:1005C000546800202EE000F1080C4FF0010808FAF2
:1005D0000CF3B1F800C00CEA03069E4221D183005F
:1005E0004FF00F0C0CFA03F7BC4305FA03FC4CEA7E
:1005F000040491F803C0BCF1280F05D100F1080CE8
:1006000008FA0CF8C2F8148091F803C0BCF1480F46
:1006100007D100F1080C4FF0010808FA0CF8C2F8F5
:100620001080401C0828CED35460BDE8F0810246FB
:10063000002093680B400BB1012000E000207047C0
:100640004161704710B504200249C8700248FFF7A5
:1006500063FF10BD0E0000200010014010B51020F7
:100660000249C8700248FFF757FF10BD0E00002076
:10067000001001400161704700BFFEE72DE9F0471F
:1006800004460D4616461F46DDF8208001F0E0FBCB
:10069000301B401C791B491C00FB01F93B463246CC
:1006A0002946204601F0ACFB02E0404601F094FBF5
:1006B000B9F10000A9F10109F7D1BDE8F087000008
:1006C00008B50020914908708860822048808880A1
:1006D00001F0F0FA01F0BCFB4FF480108C49086186
:1006E0001420FFF74FFE1020894908611420FFF7FE
:1006F00049FE112001F05EFB7820FFF743FEB12098
:1007000001F058FB052001F043FB3C2001F040FBC9
:100710003C2001F03DFBB22001F04CFB052001F034
:1007200037FB3C2001F034FB3C2001F031FBB320CF
:1007300001F040FB052001F02BFB3C2001F028FBE1
:100740003C2001F025FB052001F022FB3C2001F0BC
:100750001FFB3C2001F01CFBB42001F02BFB03200D
:1007600001F016FBC02001F025FB282001F010FB52
:10077000082001F00DFB042001F00AFBC12001F06C
:1007800019FBC02001F004FBC22001F013FB0D2077
:1007900001F0FEFA002001F0FBFAC32001F00AFB91
:1007A0008D2001F0F5FA2A2001F0F2FAC42001F0C0
:1007B00001FB8D2001F0ECFAEE2001F0E9FAC520F2
:1007C00001F0F8FA1A2001F0E3FA362001F0F2FA0B
:1007D000C02001F0DDFAE02001F0ECFA042001F085
:1007E000D7FA222001F0D4FA072001F0D1FA0A202A
:1007F00001F0CEFA2E2001F0CBFA302001F0C8FA39
:10080000252001F0C5FA2A2001F0C2FA282001F0C3
:10081000BFFA262001F0BCFA2E2001F0B9FA3A20E6
:1008200001F0B6FA002001F0B3FA012001F0B0FAAD
:10083000032001F0ADFA132001F0AAFAE12001F043
:10084000B9FA042001F0A4FA162001F0A1FA06205A
:1008500001F09EFA0D2001F09BFA2D2001F098FA8C
:10086000262001F095FA232001F092FA272001F0CA
:100870008FFA272001F08CFA252001F089FA2D202B
:1008800001F086FA3B2001F083FA002001F080FAA3
:10089000012001F07DFA042001F07AFA132001F022
:1008A00077FA2A2001F086FA002001F071FA002080
:1008B00001F06EFA002001F06BFA7F2001F068FA77
:1008C0002B2001F077FA002001F062FA002001F0FD
:1008D0005FFA002001F05CFA9F2001F059FA3A20FB
:1008E00001F068FA052001F053FA292001F062FABC
:1008F0000020009005488388428801210846FFF7C0
:10090000BDFE01200149087008BD00003400002030
:10091000001001402DE9FC4706460F4615461C46CF
:10092000DDE90A9A1A48007808B9BDE8FC87B046A4
:100930000C2C06D0102C04D0182C02D0202C00D067
:1009400018241FE012484088001BB04202DA4646D5
:10095000381987B20E488088001BB84200DAE4E7F5
:1009600028787F280EDACDE9009A2A78234639467E
:10097000304601F0E1F86D1C204604EBD07106EB27
:1009800061018EB228780028DCD100BFCDE70000DD
:10099000340000201FB50121084600F00BFD0121A5
:1009A000082000F007FD4FF48050ADF8000004204F
:1009B0008DF8030003208DF8020069461148FFF707
:1009C000ABFD0C210120FFF787FD4FF48050029012
:1009D00000208DF80C000C208DF80D0001208DF802
:1009E0000E0002A8FFF72EFD28208DF8040001203C
:1009F0008DF805008DF806008DF8070001A800F0BD
:100A00002BFC1FBD000C014008B501210C2000F09B
:100A1000D1FC1020ADF8000003208DF8020010205A
:100A20008DF8030069460648FFF776FD4FF48060B5
:100A3000ADF8000069460348FFF76EFD08BD0000F1
:100A400000080140000C014000B587B001210803F7
:100A500000F0B0FC01210C2000F0ACFC4020ADF80F
:100A6000040003208DF8060018208DF8070001A966
:100A70002648FFF751FD8020ADF8040001A9234866
:100A8000FFF74AFD2020ADF8040001A91F48FFF739
:100A900043FD0220ADF8040003208DF8060010206D
:100AA0008DF8070001A91A48FFF736FD10211748F5
:100AB000FFF7E0FD0021174800F01EFD0020ADF813
:100AC00008004FF48270ADF80A000020ADF80C0069
:100AD0000220ADF80E000020ADF810004FF40070B9
:100AE000ADF812002820ADF814000020ADF8160073
:100AF0000720ADF8180002A9064800F017FD0121F3
:100B0000044800F0F9FC07B000BD000000080140F7
:100B1000000C01400030014030B5002100220023CC
:100B200000BF0BE0002206E0C82300BF1C1EA3F19B
:100B30000103FBD1521C8242F6D3491C0529F1D393
:100B400030BD10B5FFF760FFFFF724FFFFF77CFF14
:100B500000F026FB00F0F8FA10BD000090B0002471
:100B600000200F900E900D900C90FFF7EAFFFFF71A
:100B700063FB10B951A000F0FBFE5AA000F0F8FE94
:100B80005FA000F0F5FE64A000F0F2FE68A000F0A7
:100B9000EFFE6DA000F0ECFE72A000F0E9FE002078
:100BA0007549087089E00CAB0DAA0EA90FA8FFF7D4
:100BB00096FB28B39DF834309DF83C206FA107A820
:100BC00000F0E6FE9DF830309DF8382070A102A8B4
:100BD00000F0DEFE00204FF6E0710C2307AACDE9FD
:100BE00000100A210620FFF795FE00204FF6E07165
:100BF0000C2302AACDE900101E210620FFF78AFE71
:100C00005D480078102818D003DC48B101284ED187
:100C100004E011284CD0312849D100E000BF4BE05E
:100C200001205549087000F03FFC28B93120524995
:100C300008705BA000F09CFE3EE000F0A5F90446C1
:100C4000214659A000F094FE062C2AD2DFE804F0D9
:100C500029030C151D2557A000F08AFE4FF4807162
:100C60005A48FFF7EDFC1DE059A000F081FE4FF45B
:100C700080715648FFF7FEFC14E05BA000F078FEA0
:100C800004215E48FFF7F6FC0CE05DA000F070FE6A
:100C900004215A48FFF7D4FC04E05EA000F068FE8F
:100CA00000E000BF00BF00203349087004E000BF2F
:100CB00000203149087000BF00BF74E70D0A2045CD
:100CC00045524F5221205448452044485431312048
:100CD000484153204E4F20524553504F4E442E2EE4
:100CE0002E0000000D0A205448452044485431315C
:100CF0002048415320524553504F4E440D0A0000A6
:100D0000312E206461206B61692074616920646503
:100D10006E670D0A00000000322E206775616E209C
:100D20006269207461692064656E670D0A000000C5
:100D3000332E20716920646F6E672066656E6720B0
:100D40007368616E0D0A0000342E206775616E2095
:100D50006469616F2066656E67207368616E0D0A55
:100D600000000000352E207A6875616E672074617E
:100D700069200D0A000000000A00002074656D70F3
:100D80003A2025642E2564206465677265657300CA
:100D900068756D693A2025642E256420252500009C
:100DA0006572726F000000000D0ACAB6B1F0C2EBA6
:100DB0003A25640020716920646F6E672066656E55
:100DC0006720207368616E0D0A0000000008014072
:100DD0006775616E206469616F2066656E672020AB
:100DE0007368616E0D0A00006775616E206269208C
:100DF0007461692064656E670D0A0000001401408B
:100E00006461206B6169207461692064656E670D9F
:100E10000A0000007A6875616E67207461690D0AC6
:100E20000000000070B5A8B09822294902A8FFF779
:100E30009BF928A103C9CDE900010126002441E066
:100E400000F08DF808B900263EE01DF80410C1201E
:100E500000F05CF90021C32000F058F904210820BB
:100E600000F054F90120FFF757FE0021082000F0A0
:100E70004DF90120FFF750FE002512E0C4EB0410ED
:100E800002A901EB4000405D00B90CE0C4EB041086
:100E900002AA02EB4000415D052000F037F9681C12
:100EA000C5B21E2DEADB00BF2946B92000F02EF99D
:100EB000FF21B22000F02AF90421372000F026F9A2
:100EC000601CC4B2052CBBDB00BF304628B070BD2F
:100ED000541F0008010203040500000010B5412161
:100EE000352000F013F909211C2000F00FF9202112
:100EF000BD2000F00BF90121082000F007F90520C2
:100F0000FFF70AFE0021082000F000F90520FFF796
:100F100003FE00F024F808B9002010BDFF21B22024
:100F200000F0F4F80621372000F0F0F80621372011
:100F300000F0ECF80520FFF7EFFD0B211C2000F07E
:100F4000E5F81021292000F0E1F80021BD2000F093
:100F5000DDF80120E1E710B500F01CF810BD70B518
:100F6000002500240BE0B22000F0B2F8212801D1C6
:100F7000012506E00A20FFF7CFFD601CC4B20A2C51
:100F8000F1DB00BF284670BD10B5C52000F0A0F809
:100F900010BD000010B508201949087000F032F8A3
:100FA0000021BD2000F0B2F84821172000F0AEF873
:100FB0000520FFF7B1FD80213C2000F0A7F80721B4
:100FC0003E2000F0A3F8FF21382000F09FF8072111
:100FD0003A2000F09BF80021402000F097F808210B
:100FE000422000F093F80021442000F08FF80821FF
:100FF000462000F08BF80120FFF78EFD10BD0000A9
:101000000B00002010B5062000F062F835211720F3
:1010100000F07CF80520FFF77FFD062000F058F86F
:101020000321892000F072F80520FFF775FD4321A8
:10103000CF2000F06BF80520FFF76EFD0221CB20DA
:1010400000F064F80B21112000F060F81F480078D0
:10105000402810D100211E2000F058F80F2119203F
:1010600000F054F818211B2000F050F82C211D200E
:1010700000F04CF80FE000211E2000F047F83F215F
:10108000192000F043F848211B2000F03FF81F21F1
:101090001D2000F03BF80520FFF73EFD0421CD2088
:1010A00000F034F84C21172000F030F80120FFF751
:1010B00033FD0021B92000F029F84F21CF2000F0A6
:1010C00025F8FF216F2000F021F810BD0B00002053
:1010D00070B5044610210B48FFF7B2FA02210A4806
:1010E000FFF7AEFA052000F019FF204600F016FFCA
:1010F000002000F013FF054610210248FFF7BAFA5E
:10110000284670BD00080140000C014070B505463E
:101110000C4610210A48FFF793FA02210948FFF70D
:101120008FFA042000F0FAFE284600F0F7FE204671
:1011300000F0F4FE10210248FFF79CFA70BD000099
:1011400000080140000C014010B54FF480611248C6
:10115000FFF790FA6420FFF7DFFC4FF480610E4840
:10116000FFF76EFA6420FFF7D7FC4FF480610A485E
:10117000FFF780FA6420FFF7CFFC10210748FFF744
:101180005FFA6420FFF7C8FC10210448FFF772FAE9
:101190006420FFF7C1FC10BD000C014000080140B5
:1011A00008B50121A42000F005F94FF48070ADF8D6
:1011B000000003208DF8020010208DF8030069461E
:1011C0001648FFF7A9F90420ADF800006946144855
:1011D000FFF7A2F94FF48070ADF80000694611489E
:1011E000FFF79AF94FF40070ADF8000069460D481A
:1011F000FFF792F94FF480710848FFF721FA0421B4
:101200000748FFF71DFA4FF480710648FFF718FAF8
:101210004FF400710348FFF713FA08BD00080140BE
:1012200000140140001C014000BFFEE7704708B5F4
:101230004FF4E06000F048F825208DF80000002011
:101240008DF8010001208DF802008DF8030068463A
:1012500000F002F808BD000070B5002100230F2245
:10126000C47804B3154C246804F4E064C4F5E06465
:10127000210AC1F10403CA40447804FA03F18478D6
:101280001440214309010E4C0678A155047804F05E
:101290001F050124AC4005786D11AD0005F1E02576
:1012A000C5F8004109E0047804F01F050124AC40B2
:1012B000044D0678761145F8264070BD0CED00E02F
:1012C00000E400E080E100E002490143024A1160CD
:1012D000704700000000FA050CED00E070470000C8
:1012E00010B500242B20FFF7F3FE284908700021D9
:1012F0002920FFF70BFF00210220FFF707FF2348FB
:10130000007800F01000C8B1B220FFF7E1FE2128FC
:1013100014D1BF20FFF7DCFE35280FD1BA20FFF72C
:10132000D7FE0446002C05DD042C03DC10201849F0
:10133000087006E011201649087002E011201449D7
:10134000087000212B20FFF7E1FE00211C20FFF791
:10135000DDFE00212920FFF7D9FE00210220FFF742
:10136000D5FE00212B20FFF7D1FE0021BA20FFF788
:10137000CDFE0021BC20FFF7C9FE01210820FFF7A8
:10138000C5FE00210820FFF7C1FE10BD0C000020A3
:101390000A00002029B1064AD2690243044BDA61EF
:1013A00004E0034AD2698243014BDA6170470000CE
:1013B0000010024029B1064A92690243044B9A6127
:1013C00004E0034A92698243014B9A61704700002E
:1013D0000010024030B500210022002400232D4DD2
:1013E0006D6805F00C0121B1042905D0082923D12D
:1013F00005E0294D056022E0274D05601FE0254DE1
:101400006D6805F47012234D6D6805F48034022573
:1014100005EB92421CB9214D554305600BE01D4D73
:101420006D6805F400351DB11C4D5543056002E0A3
:10143000194D5543056002E0174D056000BF00BF20
:10144000144D6D6805F0F0010909154D6B5C0568D8
:10145000DD4045600F4D6D6805F4E061090A104DEF
:101460006B5C4568DD4085600A4D6D6805F4605130
:10147000C90A0B4D6B5C4568DD40C560054D6D6864
:1014800005F44041890B074D6B5CC568B5FBF3F56E
:10149000056130BD0010024000127A0000093D00D5
:1014A0001A0000202A00002070B50024002500BF8B
:1014B0001DE0FFF750FD6420FFF72EFBFFF7B2FCA5
:1014C00028B9FFF741FE3220FFF726FB0DE00A2086
:1014D000FFF722FBFFF702FD28B9FFF735FE3220A8
:1014E000FFF71AFB01E0012503E0601CC4B2052CE4
:1014F000DFDB00BF284670BD21B1028842F0400208
:10150000028004E002884FF6BF731A4002807047E1
:101510000246002013890B400BB1012000E000209F
:1015200070470146888970478181704710B5002255
:10153000028802F441520B884C8823438C88234351
:10154000CC8823430C8923434C8923438C89234330
:10155000CC8923431A430280838B4FF2FF742340CC
:1015600083830B8A038210BD704710B500F002F828
:1015700010BD00000CB500200190009033480068B9
:1015800040F480303149086000BF3048006800F402
:10159000003000900198401C0190009818B9019803
:1015A000B0F5A06FF1D12948006800F4003010B107
:1015B0000120009001E0002000900098012843D114
:1015C0002348006840F01000214908600846006880
:1015D00020F0030008600846006840F00200086040
:1015E0001A484068194948600846406848600846FB
:1015F000406840F4806048600846406820F47C10F1
:1016000048600846406840F4E810486008460068B2
:1016100040F08070086000BF0C48006800F0007067
:101620000028F9D00948406820F0030007494860C5
:101630000846406840F00200486000BF0348406828
:1016400000F00C000828F9D10CBD00000010024089
:101650000020024030B50146B1F1807F01D3012066
:1016600030BD21F07F40401E4FF0E0225061501706
:101670000F22002807DA13071D0E094B00F00F0494
:10168000241F1D5503E013071C0E064B1C5400BFFE
:1016900000204FF0E0229061072010610020DFE77A
:1016A00018ED00E000E400E00448006820B10348C1
:1016B0000068401E014908607047000014000020C7
:1016C00010B51348006840F0010011490860084651
:1016D0004068104908400E494860084600680E49B5
:1016E00008400B4908600846006820F48020086024
:1016F0000846406820F4FE0048604FF41F008860F0
:10170000FFF733FF4FF000600449086010BD000090
:10171000001002400000FFF8FFFFF6FE08ED00E0B9
:101720001148008800F00100E0B14FF6FE700E494C
:1017300008800E480068401C0C4908600C4800787E
:10174000401C0B4908700B480078401C0949087080
:1017500009480078401C0849087008480078401C77
:101760000649087070470000100800400000002083
:1017700006000020070000200800002009000020CB
:1017800021B1828942F40052828104E082894DF6BF
:10179000FF731A408281704702460020B1F5007F36
:1017A00000D100BF13880B400BB1012000E00020E6
:1017B0007047F0B50346002400260025002040F6BF
:1017C0006A17B94200D100BF1846C1F3421401F0B4
:1017D0001F06012707FA06F5012C01D10C3004E0A1
:1017E000022C01D1103000E014301AB107682F43E9
:1017F000076002E00768AF430760F0BD2DE9F047DE
:1018000086B005460E460024A24600BFA14600272A
:10181000B08900B100BF2F462C8A4CF6FF700440FF
:10182000F08804432C82AC894EF6F3100440B08853
:1018300031890843718908430443AC81AC8A4FF66F
:10184000FF400440B0890443AC8201A8FFF7C2FD09
:101850001F48874202D1DDF810A001E0DDF80CA09E
:10186000A88900F4004040B10AEBCA0000EB0A105E
:1018700031684900B0FBF1F807E00AEBCA0000EB61
:101880000A1031688900B0FBF1F86420B8FBF0F071
:1018900004012009642101FB1089A88900F400409B
:1018A00040B1322000EBC900B0FBF1F000F00700BE
:1018B000044308E0322000EB09106421B0FBF1F092
:1018C00000F00F0004432C8106B0BDE8F087000053
:1018D00000380140C1F308028280704700B585B02E
:1018E00001218803FFF766FD01210420FFF762FD57
:1018F0004FF40070ADF8100018208DF8130003208D
:101900008DF8120004A91748FEF706FE4FF4806018
:10191000ADF8100004208DF8130004A91148FEF75B
:10192000FBFD4FF4E13000900020ADF80400ADF86D
:101930000600ADF80800ADF80C000C20ADF80A0068
:1019400069460948FFF75AFF012240F2255106482F
:10195000FFF72FFF01210448FFF712FFFFF767FC95
:1019600005B000BD000801400038014000BFFEE79F
:101970000FB4054B10B503A9044A029800F02CF8E7
:1019800010BC5DF814FB0000911C00083000002022
:101990000FB4084B10B504A902AA039800F01CF874
:1019A000044602A9002000F0C1F8204610BC5DF8F2
:1019B00014FB00002D1B000802E008C8121F08C11C
:1019C000002AFAD170477047002001E001C1121FC0
:1019D000002AFBD1704700002DE9FF4F89B09B46DC
:1019E0000446002506E025280BD05A460B9990475F
:1019F000641C6D1C20780028F5D10DB02846BDE888
:101A0000F08F0027B8460122474900E0074314F849
:101A1000013F203B02FA03F00842F7D120782E283C
:101A200019D114F8010F47F004072A280ED06FF0DF
:101A30002F022078A0F1300109290CD808EB880189
:101A400002EB410100EB0108641CF2E70A98641CF8
:101A500050F8048B0A9020780028CED0642808D053
:101A6000692806D075281ED05A460B9990476D1CE0
:101A700058E00A994FF00A0901C90A91002802DAD0
:101A800040422D2102E0390504D52B218DF820108C
:101A9000012103E0F90704D02021F7E78A4608AEC8
:101AA0000DE00021FAE70A994FF00A0901C90A91ED
:101AB000F7E74946FEF76AFB303106F8011D0028BA
:101AC000F7D1ADEB060000F12009780701D44FF003
:101AD0000108C84502DDA8EB090000E000208046AF
:101AE000002706E008A85A46C05D0B9990476D1C78
:101AF0007F1C5745F6DB04E030205A460B9990478F
:101B00006D1CB8F10001A8F10108F5DC05E016F83C
:101B1000010B5A460B9990476D1CB9F10001A9F1D0
:101B20000109F4DC641C65E7092801000A68531CFC
:101B30000B601070704700002DE9F84F80460F468B
:101B400016461C4600F084F94548007808B9BDE8FF
:101B5000F88FB9462046E31704EB5373DB10214698
:101B60004FEAE47C04EB5C7C4FEAEC0CA4EBCC0C7D
:101B7000BCF1000F02D04FF0010C01E04FF0000C5F
:101B80006344224604EBD27C4FEA6C0C03FB0CF35B
:101B9000DBB20093A6F12000C6B200255BE00C2C5E
:101BA00007D106EB46002F4901EB800010F805A095
:101BB0001AE0102C05D12C4800EB061010F805A0F7
:101BC00012E0182C07D106EBC600284901EB800073
:101BD00010F805A008E0202C05D1254800EB861060
:101BE00010F805A000E0B2E74FF0000B2DE00AF07E
:101BF000800030B10A9882B23946404600F03AF887
:101C000005E00B9882B23946404600F033F84FEABF
:101C10004A604FEA106A781C87B211488088B8423F
:101C200000DC94E7A7EB0900A0420AD14F4608F177
:101C300001001FFA80F80A484088404500DC86E72A
:101C400006E00BF1010000F0FF0BBBF1080FCEDB4B
:101C500000BF681CC5B200988542A0DB00BF76E7D4
:101C6000340000204A3E0008BE420008AE4800088A
:101C70000A56000870B504460D4616462B46224605
:101C80002946204600F0BCF8304600F0A5F870BDAB
:101C900070B504460D46E1B20548FFF71BFE00BFD4
:101CA00040210348FFF778FD0028F9D0204670BD99
:101CB0000038014008B501211C20FFF77BFB4FF4E1
:101CC0000050ADF8000018208DF8030003208DF8B7
:101CD000020069462748FEF71FFC4FF40040ADF8AC
:101CE000000003208DF8020018208DF803006946DB
:101CF0002048FEF711FC1020ADF8000003208DF8FD
:101D0000020010208DF8030069461B48FEF704FC12
:101D10004FF40060ADF8000003208DF802001020A1
:101D20008DF8030069461348FEF7F6FB0120ADF875
:101D3000000003208DF8020010208DF80300694692
:101D40000C48FEF7E9FB0220ADF8000003208DF8F7
:101D5000020010208DF8030069460848FEF7DCFBFE
:101D60000120044910310860022004491031086044
:101D700008BD0000000C01400010014000080140B7
:101D8000FFF7ACFDFEF79CFCFEF7E8FE00BFFEE7A8
:101D900000B503464FF480300549086040110860E3
:101DA000184600F083F801200149086000BD0000DA
:101DB000100C014000B503464FF48030054908601F
:101DC000C0020860D8B200F071F801200149086033
:101DD00000BD0000100C014000B503464FF48030F8
:101DE0000649086040110860181200F05FF8D8B288
:101DF00000F05CF801200149086000BD100C0140B2
:101E0000F0B504460D4616461F462A20FFF7D2FFBE
:101E10000020FFF7BDFFE0B2FFF7BAFF0020FFF799
:101E2000B7FFF0B2FFF7B4FF2B20FFF7C3FF00208E
:101E3000FFF7AEFFE8B2FFF7ABFF0020FFF7A8FF08
:101E4000F8B2FFF7A5FF2C20FFF7B4FFF0BD0000AC
:101E500000B585B001218803FFF79CFA0020ADF89A
:101E600000004FF48270ADF802000020ADF80400CD
:101E70000220ADF806000120ADF808004002ADF8E0
:101E80000A001020ADF80C000020ADF80E0007206D
:101E9000ADF8100069460448FFF748FB01210248ED
:101EA000FFF72AFB05B000BD0038004001460020C6
:101EB000184A10800BE017480088401C154A108013
:101EC00010460088B0F5FA7F01DD00207047124807
:101ED000008800F002000028EDD00F48001D0180AE
:101EE00000200C4A10800AE00A480088401C094A79
:101EF000108010460088FA2801DD0020E6E7064839
:101F0000008800F001000028EED00348001D008882
:101F1000C0B2DBE7180000200838004010B50446C6
:101F200000BF02210A48FFF7F3FA0028F9D0214642
:101F30000748FFF7F9FA00BF01210548FFF7E8FA63
:101F40000028F9D00248FFF7ECFAC0B210BD00003B
:101F500000300140716920646F6E672066656E67AE
:101F6000207368616E0000000000000000000000A7
:101F700000006775616E206469616F2066656E6739
:101F8000207368616E000000000000000000000087
:101F90006775616E206269207461692064656E678F
:101FA000000000000000000000000000000064616C
:101FB000206B6169207461692064656E67000000B0
:101FC0000000000000000000000000007A68756159
:101FD0006E672074616900000000000000000000CE
:101FE00000000000000000000000000000000000F1
:101FF00000000040000030C00100E0E00100C0E14E
:102000000000C061001880F1FF3F00700018003E22
:10201000001804DA01181CEE0118386F601878F700
:10202000FF1870318618B019061880090618800547
:102030008619C0FEFF1BC000061AC0306618E0708B
:10204000E6197C30E6187030E6186030E61870F853
:10205000FF1C7030E01C7000001C7000F01F70004E
:10206000800F0000000700000000000000000000DA
:10207000000000008000000EC00100FEFF03000E03
:10208000C001000EC001000EC00100FEFF01000EE5
:10209000C001000EC001000EC00100FEFF01000ED5
:1020A000C001000640000000000030700C18F0FF76
:1020B000FC3F70700C1870700C1870700C187070F9
:1020C0000C18F07FFC1F70700C1870700C1870707A
:1020D0000C1870700C1870700C18F07FFC1F70706A
:1020E0000C181000040000000000000000000000B8
:1020F00000000000300000007000001C7000FC1F99
:102100007000008C7100208C7700E08C7304F08EDE
:10211000731E708EF31F708EFB0C708E7F0C70FE22
:10212000730C3086730C3086730C3096730CF8BFCA
:10213000730C38F8730C00B8730C00B8F30F00BEC2
:102140007306E09B73307E9873301C981330089CA4
:102150000330009C0330008C0378E00FFF7F800782
:1021600000000003000000000000800080008000EC
:10217000FC1F40004000FF7F20001000F00F00080F
:102180000004600280010002000400010402080053
:10219000E83F0102020202020802C83F04020702ED
:1021A000040204020402F47F00000000F80F080893
:1021B0000808F80F08080808F80F20022222242235
:1021C0002812280A2002FF7F00000000FC1F0000E8
:1021D000000000000000FF7F800080008808881059
:1021E000842082408140A0004000400080008000A8
:1021F000FF7F200020002000E00F2008200820089A
:10220000100810080808040502028000FE3F0220A2
:102210002000FF7F10047802C0033C1C8000FF7F79
:10222000A00290048C188360800000000000000071
:10223000000000000000000000000000000000009E
:10224000000000000000000000000000000000008E
:10225000000000000000000000000000000000007E
:10226000000000000000000000000000000000006E
:102550000000FFFF0000000000000000000000007D
:10256000000000000000000000000000000000006B
:10257000000000000000000000000000000000005B
:10258000000000000000000000000000000000004B
:10259000000000000000000000000000000000003B
:1025A000000000000000000000000000000000002B
:1025B000000000000000000000000000000000001B
:1025C00000000000000000000000FFFF000000000D
:1025D00000000000000000000000000000000000FB
:1025E00000000000000000000000000000000000EB
:1025F00000000000000000000000000000000000DB
:1026000000000000000000000000000000000000CA
:1026100000000000000000000000000000000000BA
:1026200000000000000000000000000000000000AA
:10263000000000000000000000000000000000009A
:102640000000FFFFFFFF000000000000000000008E
:10265000000000000000000000000000000000007A
:10266000000000000000000000000000000000006A
:10267000000000000000000000000000000000005A
:1026800000000000000000000000FFFFFFFFFFFF50
:10269000FFFFFFFFFFFF694A00000000000000008D
:1026A000000000000000000000000000000000002A
:1026B00000000000000000000000FFFFFFFFFFFF20
:1026C000000000000000000000000000000000000A
:1026D00000000000000000000000000000000000FA
:1026E00000000000000000000000000000000000EA
:1026F00000000000000000000000FFFFFFFFFFFFE0
:10270000FFFFFFFFFFFFFFFFFFFFFFFFFFFFFFFFD9
:10271000FFFFFFFFFFFFF7BD00000000000000000B
:1027200000000000000000000000000000000000A9
:102730000000FFFFFFFFFFFF00000000000000009F
:102740000000000000000000000000000000000089
:102750000000000000000000000000000000000079
:102760000000000000000000000000000000FFFF6B
:10277000FFFFFFFFFFFFFFFFFFFFFFFFFFFFFFFF69
:10278000FFFFFFFFFFFFFFFFFFFFFFFFFFFFFFFF59
:10279000FFFFFFFF0000000000000000000000003D
:1027A00000000000000000000000FFFFFFFFFFFF2F
:1027B000FFFFFFFFFFFFFFFF000000000000000021
:1027C0000000000000000000000000000000000009
:1027D00000000000000000000000000000000000F9
:1027E0000000FFFFFFFFFFFFFFFFFFFFFFFFFFFFF7
:1027F000FFFFFFFFFFFFFFFFFFFFFFFFFFFFFFFFE9
:10280000FFFFFFFFFFFFFFFFFFFFFFFFFFFFFFFFD8
:102810000000000000000000000000000000D39C49
:10282000FFFFFFFFFFFFFFFFFFFFFFFF00000000B4
:102830000000000000000000000000000000000098
:102840000000000000000000000000000000000088
:10285000000000000000FFFFFFFFFFFFFFFFFFFF82
:10286000FFFFFFFFFFFFFFFFFFFFFFFFFFFFFFFF78
:10287000FFFFFFFFFFFFFFFFFFFFFFFFFFFFFFFF68
:10288000FFFFFFFFFFFFFFFFFFFF00000000000052
:1028900000000000FFFFFFFFFFFFFFFFFFFFFFFF44
:1028A000FFFF00000000000000000000000000002A
:1028B0000000000000000000000000000000000018
:1028C000000000000000000000000000FFFFFFFF0C
:1028D000FFFFFFFFFFFFFFFFFFFFFFFFFFFFFFFF08
:1028E000FFFFFFFFFFFFFFFFFFFFFFFFFFFFFFFFF8
:1028F000FFFFFFFFFFFFFFFFFFFFFFFFFFFFFFFFE8
:10290000FFFFFFFFFFFFFFFFFFFFFFFFFFFFFFFFD7
:10291000FFFFFFFFFFFFFFFFFFFFD39C0000000052
:1029200000000000000000000000000000000000A7
:102930000000000000000000000000000000000097
:102940000000FFFFFFFFFFFFFFFFFFFFFFFFFFFF95
:10295000FFFFFFFFFFFFFFFFFFFFFFFFFFFFFFFF87
:10296000FFFFFFFFFFFFFFFFFFFFFFFFFFFFFFFF77
:10297000FFFFFFFFFFFFFFFFFFFFFFFF0000000063
:10298000FFFFFFFFFFFFFFFFFFFFFFFFFFFFFFFF57
:10299000FFFF000000000000000000000000000039
:1029A0000000000000000000000000000000000027
:1029B0000000000000000000FFFFFFFFFFFFFFFF1F
:1029C000FFFFFFFFFFFFFFFFFFFFFFFFFFFFFFFF17
:1029D000FFFFFFFFFFFFFFFFFFFFFFFFFFFFFFFF07
:1029E000FFFFFFFFFFFFFFFFFFFFFFFFFFFFFFFFF7
:1029F000FFFFFFFFFFFF00000000FFFFFFFFFFFFE3
:102A0000FFFFFFFFFFFFFFFFFFFF000000000000D0
:102A100000000000000000000000000000000000B6
:102A20000000000000000000000000000000FFFFA8
:102A3000FFFFFFFFFFFFFFFFFFFFFFFFFFFFFFFFA6
:102A4000FFFFFFFFFFFFFFFFFFFFFFFFFFFFFFFF96
:102A5000FFFFFFFFFFFFFFFFFFFFFFFFFFFFFFFF86
:102A6000FFFFFFFFFFFFFFFFFFFFFFFFFFFFFFFF76
:102A7000FFFFFFFF6D6BFFFFFFFFFFFFFFFFFFFF8C
:102A80000000000000000000000000000000000046
:102A90000000000000000000000000000000000036
:102AA00000000000FFFFFFFFFFFFFFFFFFFFFFFF32
:102AB000FFFFFFFFFFFFFFFFFFFFFFFFFFFFFFFF26
:102AC0000000000000000000000000000000000006
:102AD000FFFFFFFFFFFFFFFFFFFFFFFFFFFFFFFF06
:102AE000FFFFFFFFFFFFFFFFFFFF00005DEFFFFFA6
:102AF000FFFFFFFF000000000000000000000000DA
:102B000000000000000000000000000000000000C5
:102B100000000000000000000000FFFFFFFFFFFFBB
:102B2000FFFFFFFFFFFFFFFFFFFFFFFFFFFFFFFFB5
:102B3000FFFFFFFFFFFF000000000000000000009B
:102B40000000000000000000000000000000000085
:102B500000000000EB5AFFFFFFFF00000000000034
:102B6000000000000000FFFFFFFFFFFF000000006B
:102B70000000000000000000000000000000000055
:102B80000000000000000000000000000000000045
:102B90000000FFFFFFFFFFFFFFFFFFFFFFFFFFFF43
:102BA000FFFFFFFFFFFFFFFFFFFFFFFF0000000031
:102BB0000000000000000000000000000000000015
:102BC0000000000000000000000000000000000005
:102BD00000000000000000000000000000000000F5
:102BE000FFFFFFFF000000000000000000000000E9
:102BF00000000000000000000000000000000000D5
:102C00000000000000000000FFFFFFFFFFFFFFFFCC
:102C1000FFFFFFFFFFFFFFFFFFFFFFFFFFFFFFFFC4
:102C2000FFFF0000000000000000000000000000A6
:102C30000000000000000000000000000000000094
:102C40000000000000000000000000000000000084
:102C50000000000000000000FFFFFFFF0000000078
:102C60000000000000000000000000000000000064
:102C70000000000000000000000000000000000054
:102C8000FFFFFFFFFFFFFFFFFFFFFFFFFFFFFFFF54
:102C9000FFFFFFFFFFFFFFFFBEF700000000000087
:102CA000000000000000FFFFFFFFFFFF000000002A
:102CB0000000000000000000000000000000000014
:102CC0000000000000000000000000000000000004
:102CD0000000FFFF000000000000000000000000F6
:102CE00000000000000000000000000000000000E4
:102CF000000000000000FFFFFFFFFFFFFFFFFFFFDE
:102D0000FFFFFFFFFFFFFFFFFFFFFFFFFFFFFFFFD3
:102D100000000000000000000000A631FFFFFFFFE0
:102D2000FFFFFFFFFFFF00000000000000000000A9
:102D30000000000000000000000000000000000093
:102D400000000000000000000000FFFFFFFF000087
:102D50000000000000000000000000000000000073
:102D60000000000000000000000000000000FFFF65
:102D7000FFFFFFFFFFFFFFFFFFFFFFFFFFFFFFFF63
:102D8000FFFFFFFFFFFFFFFFFFFFFFFFFFFF000051
:102D9000FFFFFFFFFFFFFFFFFFFFFFFFFFFF000041
:102DA0000000000000000000000000000000FFFF25
:102DB000FFFFFFFF00000000000000000000000017
:102DC00000000000FFFFFFFF000000000000000007
:102DD00000000000000000000000000000000000F3
:102DE000000000000000FFFFFFFFFFFFFFFFFFFFED
:102DF000FFFFFFFFFFFFFFFFFFFFFFFFFFFFFFFFE3
:102E0000FFFFFFFFFFFFFFFFFFFFFFFFFFFFFFFFD2
:102E1000FFFFFFFFFFFFFFFF0000000000000000BA
:102E20000000FFFFFFFFFFFFFFFF000000000000AA
:102E3000000000000000000000000000FFFFFFFF96
:102E4000FFFF000000000000000000000000000084
:102E5000000000000000000000000000FFFFFFFF76
:102E6000FFFFFFFFFFFFFFFFFFFFFFFFFFFFFFFF72
:102E7000FFFFFFFFFFFFFFFFFFFFFFFFFFFFFFFF62
:102E8000FFFFFFFFFFFFFFFFFFFFFFFFFFFFFFFF52
:102E9000FFFFFFFFFFFFFFFFFFFFFFFFFFFFFFFF42
:102EA000494A000000000000000000000000FFFF91
:102EB000FFFF0000FFFFFFFFFFFFFFFF000000001C
:102EC0000000000000000000000000000000000002
:102ED00000000000FFFFFFFFFFFFFFFFFFFFFFFFFE
:102EE000FFFFFFFFFFFFFFFFFFFFFFFFFFFFFFFFF2
:102EF000FFFFFFFFFFFFFFFFFFFFFFFFFFFFFFFFE2
:102F0000FFFFFFFFFFFFFFFFFFFFFFFFFFFFFFFFD1
:102F1000FFFFFFFFFFFFFFFF0000000000000000B9
:102F200000000000FFFFFFFFFFFFFFFFFFFFFFFFAD
:102F3000FFFFFFFFFFFF0000000000000000000097
:102F4000000000000000000000000000FFFFFFFF85
:102F5000FFFFFFFFFFFFFFFFFFFFFFFFFFFFFFFF81
:102F6000FFFFFFFFFFFFFFFFFFFFFFFFFFFFFFFF71
:102F7000FFFFFFFFFFFFFFFFFFFFFFFFFFFFFFFF61
:102F8000FFFFFFFFFFFFFFFFFFFFFFFFFFFF00004F
:102F900000000000000000000000FFFFFFFFFFFF37
:102FA000FFFFFFFF0000FFFFFFFFFFFFFFFFFFFF2F
:102FB0000000000000000000000000000000000011
:102FC00000000000FFFFFFFFFFFFFFFFFFFFFFFF0D
:102FD000FFFFFFFFFFFFFFFFFFFFFFFFFFFFFFFF01
:102FE000FFFFFFFFFFFFFFFFFFFFFFFFFFFFFFFFF1
:102FF000FFFFFFFFFFFFFFFFFFFFFFFFFFFFFFFFE1
:10300000FFFFFFFF000000000000000000000000C4
:10301000FFFFFFFFFFFFFFFFFFFFFFFFFFFFFFFFC0
:10302000FFFFFFFFFFFFFFFFFFFF000000000000AA
:10303000000000000000000000000000FFFFFFFF94
:10304000FFFFFFFFFFFFFFFFFFFFFFFFFFFFFFFF90
:10305000FFFFFFFFFFFFFFFFFFFFFFFFFFFFFFFF80
:10306000FFFFFFFFFFFFFFFFFFFFFFFFFFFFFFFF70
:10307000FFFFFFFFFFFFFFFFFFFF0000000000005A
:10308000000000000000000000000000E739FFFF22
:10309000FFFFFFFFFFFF00000000FFFFFFFFFFFF3C
:1030A000FFFFFFFF00000000000000000000000024
:1030B00000000000FFFFFFFFFFFFFFFFFFFFFFFF1C
:1030C000FFFFFFFFFFFFFFFFFFFFFFFFFFFFFFFF10
:1030D000FFFFFFFFFFFFFFFFFFFFFFFFFFFFFFFF00
:1030E000FFFFFFFFFFFFFFFFFFFFFFFFFFFFFFFFF0
:1030F000FFFF0000000000000000000000000000D2
:1031000000000000000000000000000000000000BF
:10311000000000000000FFFFFFFFFFFFFFFF61084E
:103120000000FFFFFFFFFFFF00000000FFFFFFFFA9
:10313000FFFFFFFFFFFFFFFFFFFFFFFFFFFFFFFF9F
:10314000FFFFFFFFFFFFFFFFFFFFFFFFFFFFFFFF8F
:10315000FFFFFFFFFFFFFFFFFFFFFFFFFFFFFFFF7F
:10316000FFFFFFFFFFFFFFFFFFFF00000000000069
:10317000000000000000000000000000000000004F
:10318000000000000000FFFFFFFF00000000000043
:10319000FFFFFFFFFFFFFFFFFFFF00000000000039
:1031A00000000000FFFFFFFFFFFFFFFFFFFFFFFF2B
:1031B000FFFFFFFFFFFFFFFFFFFFFFFFFFFFFFFF1F
:1031C000FFFFFFFFFFFFFFFFFFFFFFFFFFFFFFFF0F
:1031D000FFFFFFFFFFFFFFFFFFFFFFFFFFFFFFFFFF
:1031E000FFFFDFFF00000000000000000000000003
:1031F0000000000000000000000000000000FFFFD1
:10320000FFFFFFFF000000000000000055AD0000C0
:10321000000000000000000000000000FFFFFFFFB2
:10322000FFFFFFFFFFFFFFFFFFFFFFFFFFFFFFFFAE
:10323000FFFFFFFFFFFFFFFFFFFFFFFFFFFFFFFF9E
:10324000FFFFFFFFFFFFFFFFFFFFFFFFFFFFFFFF8E
:10325000FFFFFFFFFFFFFFFFFFFFFFFFFFFF00007C
:10326000000000000000000000000000000000005E
:10327000000000000000FFFFFFFFFFFF0000000054
:10328000000000000000000000000000000000003E
:1032900000000000FFFFFFFFFFFFFFFFFFFFFFFF3A
:1032A000FFFFFFFFFFFFFFFFFFFFFFFFFFFFFFFF2E
:1032B000FFFFFFFFFFFFAA5200000000FFFFFFFF1C
:1032C000FFFFFFFF0000FFFFFFFFFFFFFFFFFFFF0C
:1032D00000000000000000000000000000000000EE
:1032E0000000000000000000000000000000FFFFE0
:1032F000FFFFFFFF000000000000000000000000D2
:10330000000000000000000000000000FFFFFFFFC1
:10331000FFFFFFFFFFFFFFFFFFFFFFFFFFFFFFFFBD
:10332000FFFFFFFF18C600000000000000000000C3
:10333000000000000000000000000000000000008D
:10334000000059CEFFFFFFFFFFFFFFFFFFFFFFFF62
:10335000FFFFFFFFFFFFFFFFFFFF00000000000077
:1033600000000000FFFFFFFFFFFF00000000000063
:10337000000000000000000000000000000000004D
:1033800000000000FFFFFFFFFFFFFFFFFFFFFFFF49
:10339000FFFFFFFFFFFFFFFFFFFF0000D39C0000C8
:1033A000000000000000000000000000000000001D
:1033B00000000000FFFFFFFFFFFFFFFFFFFFFFFF19
:1033C000FFFFFFFFFFFFFFFFFFFFFFFFFFFFFFFF0D
:1033D000000000000000000000000000FFFF0000EF
:1033E00000000000000000000000000000000000DD
:1033F0000000000000000000000000000000FFFFCF
:10340000FFFFFFFFFFFFFFFFFFFFFFFFFFFFFFFFCC
:10341000FFFF0000000000000000000000000000AE
:10342000000000000000FFFFFFFFFFFFFFFFFFFFA6
:10343000FFFFFFFFFFFFFFFFFFFFFFFFFFFFFFFF9C
:10344000FFFFFFFFFFFF0000000000000000000082
:103450000000FFFF0000000000000000000000006E
:10346000000000000000000000000000000000005C
:10347000000000000000FFFFFFFFFFFFFFFFFFFF56
:10348000FFFFFFFFFFFFFFFFFFFFFFFFFFFF00004A
:10349000000000000000000000000000FFFFFFFF30
:1034A000FFFFFFFFFFFFFFFFFFFFFFFFFFFFFFFF2C
:1034B000FFFFFFFFFFFF00000000FBDE0000000039
:1034C000000000000000FFFFFFFFFFFF0000000002
:1034D00000000000000000000000000000000000EC
:1034E00000000000000000000000000000009EF747
:1034F000FFFFFFFFFFFFFFFFFFFFFFFFFFFFFFFFDC
:10350000FFFFFFFF000000000000000000000000BF
:10351000FFFFFFFFFFFFFFFFFFFFFFFFFFFFFFFFBB
:10352000FFFFFFFFFFFFFFFFFFFFFFFFFFFFFFFFAB
:1035300000000000000000000000FFFFFFFFFFFF91
:10354000FFFF00000000000000000000000000007D
:10355000000000000000000000000000000000006B
:103560000000000000000000FFFFFFFFFFFFFFFF63
:10357000FFFFFFFFFFFFFFFFFFFFFFFFFFFF000059
:103580000000FFFFFFFFFFFFFFFFFFFFFFFFFFFF49
:10359000FFFFFFFFFFFFFFFFFFFFFFFFFFFFFFFF3B
:1035A000FFFFFFFF00000000000000000000FFFF21
:1035B000FFFFFFFFFFFFFFFFFFFF00000000000015
:1035C00000000000000000000000000000000000FB
:1035D00000000000000000000000000000000000EB
:1035E000FFFFFFFFFFFFFFFFFFFFFFFFFFFFFFFFEB
:1035F000FFFFFFFFFFFFFFFFFFFFFFFFFFFFFFFFDB
:10360000FFFFFFFFFFFFFFFFFFFFFFFFFFFFFFFFCA
:10361000FFFFFFFFFFFFFFFFFFFFFFFF00000000B6
:103620000000FFFFFFFFFFFFFFFFFFFFFFFFFFFFA8
:10363000000000000000000000000000000000008A
:10364000000000000000000000000000000000007A
:1036500000000000000000000000FFFFFFFFFFFF70
:10366000FFFFFFFFFFFFFFFFFFFFFFFFFFFFFFFF6A
:10367000FFFFFFFFFFFFFFFFFFFFFFFFFFFFFFFF5A
:10368000FFFFFFFFFFFFFFFFFFFFFFFF0000000046
:103690000000000000000000FFFFFFFFFFFFFFFF32
:1036A000FFFFFFFFFFFFFFFF000000000000000022
:1036B000000000000000000000000000000000000A
:1036C00000000000000000000000000000000000FA
:1036D00000000000FFFFFFFFFFFFFFFFFFFFFFFFF6
:1036E000FFFFFFFFFFFFFFFFFFFFFFFFFFFFFFFFEA
:1036F000FFFFFFFFFFFFFFFFFFFFFFFFFFFFFFFFDA
:10370000FFFFFFFFFFFF0000000000000000FFFFC1
:10371000FFFFFFFFFFFFFFFFFFFFFFFFFFFF0000B7
:103720000000000000000000000000000000000099
:103730000000000000000000000000000000000089
:10374000000000000000000000000000FFFFFFFF7D
:10375000FFFFFFFFFFFFFFFFFFFFFFFFFFFFFFFF79
:10376000FFFFFFFFFFFFFFFFFFFFFFFFFFFFFFFF69
:10377000FFFFFFFFFFFFFFFFFFFFFFFF0000000055
:103780000000FFFFFFFFFFFFFFFFFFFFFFFFFFFF47
:10379000FFFFFFFF0000000000000000000000002D
:1037A0000000000000000000000000000000000019
:1037B0000000000000000000000000000000000009
:1037C000000000000000FFFFFFFFFFFFFFFFFFFF03
:1037D000FFFFFFFFFFFFFFFFFFFFFFFFFFFFFFFFF9
:1037E000FFFFFFFFFFFFFFFFFFFFFFFFFFFFFFFFE9
:1037F000FFFFFFFFFFFFFFFFFFFFFFFFFFFFFFFFD9
:10380000FFFFFFFFFFFFFFFFFFFF4D6B000000000A
:1038100000000000000000000000000000000000A8
:103820000000000000000000000000000000000098
:103830000000000000000000000000000000000088
:10384000FFFFFFFFFFFFFFFFFFFFFFFFFFFFFFFF88
:10385000FFFFFFFFFFFFFFFFFFFFFFFFFFFFFFFF78
:10386000FFFFFFFFFFFFFFFFFFFFFFFFFFFFFFFF68
:10387000FFFFFFFFFFFFFFFFFFFFFFFFFFFFFFFF58
:10388000FFFF00000000000000000000000000003A
:103890000000000000000000000000000000000028
:1038A0000000000000000000000000000000000018
:1038B00000000000000000000000FFFFFFFFFFFF0E
:1038C000FFFFFFFFFFFFFFFFFFFFFFFFFFFFFFFF08
:1038D000FFFFFFFFFFFFFFFFFFFFFFFFFFFFFFFFF8
:1038E000FFFFFFFFFFFFFFFFFFFFFFFFFFFFFFFFE8
:1038F000FFFFFFFFFFFFFFFF0000000000000000D0
:1039000000000000000000000000000000000000B7
:1039100000000000000000000000000000000000A7
:103920000000000000000000000000000000000097
:1039300000000000FFFFFFFFFFFFFFFFFFFFFFFF93
:10394000FFFFFFFFFFFFFFFFFFFFFFFFFFFFFFFF87
:10395000FFFFFFFFFFFFFFFFFFFFFFFFFFFFFFFF77
:10396000FFFFFFFFFFFFFFFFFFFFFFFF0000000063
:103970000000000000000000000000000000000047
:103980000000000000000000000000000000000037
:103990000000000000000000000000000000000027
:1039A0000000000000000000000000000000B6B5AC
:1039B000FFFFFFFFFFFFFFFFFFFFFFFFFFFFFFFF17
:1039C000FFFFFFFFFFFFFFFFFFFFFFFFFFFFFFFF07
:1039D000FFFFFFFFFFFFFFFFFFFFFFFFFFFFFFFFF7
:1039E000FFFF0000000000000000000000000000D9
:1039F00000000000000000000000000000000000C7
:103A000000000000000000000000000000000000B6
:103A100000000000000000000000000000000000A6
:103A200000000000000000000000FFFFFFFFFFFF9C
:103A3000FFFFFFFFFFFFFFFFFFFFFFFFFFFFFFFF96
:103A4000FFFFFFFFFFFFFFFFFFFFFFFFFFFFFFFF86
:103A5000FFFFFFFFFFFFEB5A000000000000000027
:103A60000000000000000000000000000000000056
:103A70000000000000000000000000000000000046
:103A80000000000000000000000000000000000036
:103A90000000000000000000000000000000000026
:103AA000000000000000FFFFFFFFFFFFFFFFFFFF20
:103AB000FFFFFFFFFFFFFFFFFFFFFFFFFFFFFFFF16
:103AC000FFFFFFFFFFFFFFFFFFFFFFFF0000000002
:103AD00000000000000000000000000000000000E6
:103AE00000000000000000000000000000000000D6
:103AF00000000000000000000000000000000000C6
:103B000000000000000000000000000000000000B5
:103B100000000000000000000000000000000000A5
:103B200000000000FFFFFFFFFFFFFFFFFFFFFFFFA1
:103B3000FFFFFFFFFFFFFFFFFFFFFFFFFFFF000093
:103B40000000000000000000000000000000000075
:103B50000000000000000000000000000000000065
:103B60000000000000000000000000000000000055
:103B70000000000000000000000000000000000045
:103E5000000000000000000000003F4000000000E3
:103E60000000000030004000300040000000090069
:103E70000BC03D000BC03D00090018C024407FE08E
:103E8000224031800000180024C01B000D80324009
:103E9000018003801C4027401C8007400040100028
:103EA00060000000000000000000000000000000B2
:103EB0001F80204040200000402020401F80000044
:103EC0000000090006001F80060009000000040031
:103ED00004003F80040004000000001000600000A7
:103EE00000000000000004000400040004000400BE
:103EF0000000000000400000000000000000002062
:103F000001C006003800400000001F802040204013
:103F100020401F800000000010403FC00040000013
:103F2000000018C0214022402440184000001080AA
:103F30002040244024401B80000002000D0011009E
:103F40003FC0014000003C802440244024402380A6
:103F500000001F80244024403440038000003000D3
:103F6000200027C03800200000001B80244024408F
:103F700024401B8000001C0022C0224022401F80E1
:103F800000000000000008400000000000000000E9
:103F900000000460000000000000000004000A00AF
:103FA00011002080404009000900090009000900B3
:103FB000000000004040208011000A0004001800AA
:103FC000200023402400180000001F8020402740CC
:103FD00029401F400000004007C039000F0001C009
:103FE000004020403FC0244024401B8000001F8030
:103FF0002040204020403080000020403FC0204032
:1040000020401F80000020403FC024402E4030C090
:10401000000020403FC024402E00300000000F0070
:104020001080204022403380020020403FC0040026
:1040300004003FC02040204020403FC0204020409E
:1040400000000060202020203FC0200020002040F1
:104050003FC024400B0030C0204020403FC02040E3
:104060000040004000C03FC03C0003C03C003FC0D7
:10407000000020403FC00C4023003FC020001F80B4
:104080002040204020401F80000020403FC02440AE
:104090002400180000001F802140214020E01FA0C4
:1040A000000020403FC02440260019C0004018C036
:1040B00024402440224031800000300020403FC096
:1040C00020403000000020003F80004000403F8042
:1040D000200020003E0001C007003800200038000A
:1040E00007C03C0007C038000000204039C006006F
:1040F00039C0204000002000384007C03840200070
:104100000000304021C02640384020C000000000A0
:1041100000007FE0402040200000000070000C0004
:104120000380004000000000402040207FE00000AD
:1041300000000000200040002000000000000010EF
:1041400000100010001000100010000000004000DF
:10415000000000000000000002800540054003C090
:10416000004020003FC004400440038000000000E5
:104170000380044004400640000000000380044027
:1041800024403FC00040000003800540054003403C
:104190000000000004401FC0244024402000000014
:1041A00002E0055005500650042020403FC0044066
:1041B000040003C000400000044027C0004000008D
:1041C000000000100010041027E000000000204054
:1041D0003FC00140070004C00440204020403FC0D1
:1041E00000400040000007C0040007C0040003C0F6
:1041F0000000044007C00440040003C00040000069
:1042000003800440044003800000041007F00450C1
:10421000044003800000000003800440045007F0C5
:104220000010044007C00240040004000000000029
:1042300006400540054004C00000000004001F8047
:10424000044000400000040007800040044007C014
:1042500000400400070004C00180060004000600BE
:1042600001C0070001C006000000044006C00100B4
:1042700006C0044000000410071004E0018006009E
:1042800004000000044005C0064004400000000097
:10429000000004007BE0402000000000000000005F
:1042A000FFF000000000000040207BE00400000060
:1042B000000040008000400020002000400000007E
:1042C00000000000000000000000000000000000EE
:1042D000000000001FCC000C0000000000000000E7
:1042E000080030006000080030006000000002207C
:1042F00003FC1E20022003FC1E2002200000000000
:104300000E1811043FFF10840C78000000000F000D
:1043100010840F3800C007781884007800000078F7
:104320000F8410C411240E9800E4008400080800D3
:1043300068007000000000000000000000000000A5
:104340000000000007E018182004400200000000F0
:1043500040022004181807E000000000000002409E
:10436000024001800FF00180024002400000008006
:10437000008000800FF800800080008000000001B5
:10438000000D000E00000000000000000000000012
:10439000008000800080008000800080008000009D
:1043A000000C000C000000000000000000000000F5
:1043B00000060018006001800600180020000000C0
:1043C00007F0080810041004080807F000000000B7
:1043D000080408041FFC00040004000000000000A2
:1043E0000E0C10141024104411840E0C0000000058
:1043F0000C1810041104110412880C700000000045
:1044000000E00320042408241FFC00240000000016
:104410001F9810841104110410881070000000000F
:1044200007F00888110411041888007000000000CB
:104430001C00100010FC13001C0010000000000005
:104440000E3811441084108411440E38000000000E
:104450000700088C10441044088807F00000000092
:1044600000000000030C030C00000000000000002E
:104470000000000101060000000000000000000034
:1044800000800140022004100808100400000220EF
:104490000220022002200220022002200000000050
:1044A00010040808041002200140008000000000F1
:1044B0000E001200100C106C10800F00000003E0C2
:1044C0000C1813E4142417C4082807D000000004B3
:1044D000003C03C41C40074000E4001C000410041E
:1044E0001FFC1104110411040E880070000003E089
:1044F0000C1810041004100410081C100000100404
:104500001FFC100410041004080807F00000100439
:104510001FFC1104110417C4100408180000100433
:104520001FFC1104110017C010000800000003E078
:104530000C181004100410441C78004000001004F3
:104540001FFC10840080008010841FFC10040000F9
:10455000100410041FFC10041004000000000003ED
:104560000001100110011FFE1000100000001004D7
:104570001FFC110403801464181C100400001004B4
:104580001FFC1004000400040004000C00001004D0
:104590001FFC1F0000FC1F001FFC10040000100483
:1045A0001FFC0C04030000E010181FFC100007F0B3
:1045B0000808100410041004080807F00000100494
:1045C0001FFC10841080108010800F00000007F086
:1045D000081810241024101C080A07F20000100408
:1045E0001FFC1104110011C011300E0C000400005A
:1045F0000E1C11041084108410441C380000180094
:10460000100010041FFC100410001800000010001F
:104610001FF810040004000410041FF8100010001C
:104620001E0011E0001C007013801C0010001FC051
:10463000103C00E01F0000E0103C1FC00000100410
:10464000180C163401C001C01634180C10041000E8
:104650001C00130400FC13041C00100000000804DC
:10466000101C1064108413041C04101800000000B7
:10467000000000007FFE40024002400200000000F7
:1046800030000C0003800060001C000300000000EC
:104690004002400240027FFE0000000000000000D7
:1046A0000000200040004000400020000000000109
:1046B00000010001000100010001000100010000F3
:1046C000400040002000000000000000000000004A
:1046D0000098012401440144014400FC000410003E
:1046E0001FFC008801040104008800700000000025
:1046F000007000880104010401040088000000002B
:10470000007000880104010411081FFC000400006F
:1047100000F8014401440144014400C800000000C5
:10472000010401040FFC1104110411001800000021
:1047300000D601290129012901C901060000100440
:104740001FFC008401000100010400FC00040000C3
:104750000104190419FC000400040000000000001A
:10476000000300010101190119FE000000001004FE
:104770001FFC0024004001B4010C010400000000F3
:10478000100410041FFC00040004000000000104D9
:1047900001FC0104010001FC0104010000FC010412
:1047A00001FC008401000100010400FC0004000081
:1047B00000F8010401040104010400F800000101F3
:1047C00001FF008501040104008800700000000062
:1047D0000070008801040104010501FF00010104CB
:1047E000010401FC008401040100018000000000BC
:1047F00000CC0124012401240124019800000000C0
:104800000100010007F8010401040000000001009C
:1048100001F8000400040004010801FC0004010088
:1048200001800170000C001001600180010001F0A6
:10483000010C003001C00030010C01F0010000004B
:104840000104018C00740170018C0104000001015D
:1048500001810171000E001801600180010000005B
:104860000184010C013401440184010C00000000AA
:1048700000000000000001003EFC40024002000079
:10488000000000000000FFFF00000000000000002A
:10489000400240023EFC0100000000000000000059
:1048A00060008000800040004000200020000000E8
:1048B00000000000000000000000000000000000F8
:1048C00000000000000000000000000000000000E8
:1048D00000000000000000000000000000000000D8
:1048E000000F80380FFE380F8038000000000000F5
:1048F00000000000000000000000000001000006B1
:1049000000000C00003800003100000600000C0020
:10491000003800003000000000000000000061804E
:104920000067F807F9800061800061800061800005
:1049300061800067F807F9800061800000000000D6
:104940000000000001C0E003E0F006300804180891
:104950001FFFFE040E080787F00381E0000000003F
:10496000000001F000060C00040408060C7001F9B8
:10497000C0000E00003BE000EC18070808040C180B
:104980000003E00000000001E00007F003F8180455
:104990001C0804170807E1D003C0E00023B0003C66
:1049A00008002008000010000000000000010000C6
:1049B0003100003200001C00000000000000000078
:1049C00000000000000000000000000000000000E7
:1049D00000000000000000000000000000007F0058
:1049E00001FFC00780F00C00181000042000020036
:1049F00000000000002000021000040C00180780D6
:104A0000F001FFC0007F0000000000000000000077
:104A100000000000000000000000420000660000EE
:104A20006600003C0000180003FFC0001800003CB6
:104A30000000660000660000420000000000080060
:104A400000080000080000080000080001FFC00086
:104A5000080000080000080000080000080000002E
:104A60000000000100003100003200001C000000C6
:104A70000000000000000000000000000000000036
:104A80000000000000000800000800000800000806
:104A900000000800000800000800000800000800EE
:104AA00000080000000000000000000000003800C6
:104AB0000038000038000000000000000000000086
:104AC00000000000000000000000000000000006E0
:104AD00000001C000070000180000E000038000083
:104AE000C0000700001C00003000000000000000B3
:104AF00000007F8001FFE0038070060018040008BA
:104B000004000806001803807001FFE0007F8000A9
:104B10000000000000000000010008010008010082
:104B20000803FFF807FFF80000080000080000086D
:104B300000000000000000000001C03802C058045E
:104B40000098040118040218040418061C1803F83D
:104B50001801E0F800000000000000000001C0E0C3
:104B600003C0F00400080408080408080618080335
:104B7000F41801E7F00001E0000000000000000070
:104B800000000300000D000011000061000081081A
:104B900003010807FFF80FFFF800010800010800F3
:104BA00000000000000000E007FCD0060808061026
:104BB00008061008061008061838060FF00607C089
:104BC000000000000000000000003F8001FFE00343
:104BD000843002081804100804100804100807188C
:104BE00010030FF00007C0000000000000000000EC
:104BF00003C0000700000600000600F80607F806DC
:104C0000180006E000070000060000000000000099
:104C10000001E1E003F7F006341004180804180856
:104C2000040C08040C0806161803F3F001C1E00098
:104C3000000000000000F80003FC30030638040206
:104C4000080402080402080404100308F001FFC06D
:104C5000007F0000000000000000000000000000D5
:104C6000000000000000703800703800703800004C
:104C70000000000000000000000000000000000034
:104C800000000000000000000000301A00301C008E
:104C90000000000000000000000000000000000014
:104CA0000000000000080000140000220000410085
:104CB000008080010040020020040010080008006D
:104CC0000000000000002100002100002100002160
:104CD000000021000021000021000021000021002F
:104CE000002100000000000000000000080008048F
:104CF00000100200200100400080800041000022DE
:104D00000000140000080000000000000003C000C4
:104D100004C000040000080038080F3808083808EC
:104D200010000C300007E00003C00000000000008D
:104D300000003F8000FFE0038070020F10067088C3
:104D400004C088048308047F8802C0900301200007
:104D5000FE400000080000180001F8003E0801C2F3
:104D60000007020007E20000FE00001FC80001F873
:104D700000003800000804000807FFF807FFF804E7
:104D8000080804080804080804080806180803F4BA
:104D90001801E7F00001E0000000000000003F8083
:104DA00001FFE003807002001804000804000804FA
:104DB00000080400100600200780C0000000040066
:104DC0000807FFF807FFF8040008040008040008BB
:104DD00004001802001003807001FFE0007F8000D3
:104DE000000004000807FFF807FFF804080804089B
:104DF00008040808040808043E080400080600180F
:104E000001006000000004000807FFF807FFF80435
:104E10000808040800040800040800043E00060016
:104E200000060000018000000000000000003F803C
:104E300001FFE00380700600180400080402080463
:104E400002080203F00783F00002000002000400E1
:104E50000807FFF807FFF80408080008000008002A
:104E600000080000080004080807FFF807FFF8041E
:104E7000000800000000000004000804000804000E
:104E80000807FFF807FFF8040008040008040008FA
:104E90000000000000000000000000060000070005
:104EA000000104000104000104000307FFFE07FFE6
:104EB000FC04000004000004000004000807FFF8E0
:104EC00007FFF8040C08001800003E0004C7800526
:104ED00003C80600F80400380400180000080400A5
:104EE0000807FFF807FFF8040008000008000008A2
:104EF0000000080000080000080000180000600022
:104F0000000004000807FFF807800807FC00007F86
:104F1000C00003F80007C000780007800807FFF80A
:104F200007FFF804000804000807FFF8070008035B
:104F3000C00000E000003800001E00000700000173
:104F4000C00400F007FFF8040000000000007F80AC
:104F500001FFE00380700600180400080400080642
:104F6000001803003001FFE0007F80000000040013
:104F70000807FFF807FFF80404080404000404000D
:104F8000040400040400060C0003F80001F0000013
:104F90000000000000007F8001FFE0038070060039
:104FA000880400880400C806003C03003E01FFE6B8
:104FB000007F8400000004000807FFF807FFF804E2
:104FC0000808040800040C00040F00040BC00610BD
:104FD000F003F03801E00800000800000001E0F8EC
:104FE00003F030063010041808041808040C0804F4
:104FF0000C080206180207F00781E000000001809B
:105000000006000004000004000004000807FFF888
:1050100007FFF80400080400000400000600000177
:10502000800004000007FFE007FFF0040018000004
:105030000800000800000800000800000804001034
:1050400007FFE004000004000006000007E000077E
:10505000FE00041FE00001F80000380001E0043EFB
:105060000007C00006000004000004000007E00084
:1050700007FFC0041FF80007C007F80007FF8004FF
:105080003FF80007C004F80007000004000000001B
:105090000004000806001807C07805F1C8003E00AB
:1050A000001F800463E80780F80600180400080069
:1050B000000004000006000007800007E008047CF0
:1050C00008001FF80007F800180804E008070000AF
:1050D000060000040000000000010008060038047B
:1050E00000F80403E8040F08047C0805F00807C072
:1050F0000807001804006000000000000000000025
:105100000000000000000000003FFFFE2000022021
:105110000002200002200002200002000000000027
:105120000000000008000007000000C00000380078
:105130000006000001C000003000000E0000010069
:1051400000000000000000002000022000022000FB
:10515000022000022000023FFFFE000000000000CD
:105160000000000000000000000000000000000837
:10517000000010000030000020000030000010008F
:105180000008000000000000000000000100000115
:10519000000001000001000001000001000001000A
:1051A00000010000010000010000010000010000FA
:1051B000000000000000002000002000001000009F
:1051C00010000000000000000000000000000000CF
:1051D00000000000000000F00019F8001B18002279
:1051E00008002608002408002410003FF8001FF8DB
:1051F00000000800001800000004000007FFF80F7E
:10520000FFF00018180010080020080020080030E7
:1052100018001FF0000FC00000000000000007C0D1
:10522000001FF000183000200800200800200800AF
:105230003C08001C1000006000000000000000009E
:10524000000007C0001FF0003818002008002008E8
:1052500000200804101007FFF80FFFF000001000F6
:1052600000000000000000000007C0001FF0001256
:1052700030002218002208002208003208001E1008
:10528000000E2000000000000000200000200800A8
:10529000200801FFF803FFF8062008042008042076
:1052A0000807200003000000000000000000000EBE
:1052B000000E6E001FF30031B10020B10020B100DC
:1052C0003191001F13002E1E00200E003000000040
:1052D0000004000807FFF80FFFF800100800200086
:1052E000002000002008003FF8001FF80000080020
:1052F000000000000000000000200800200800203E
:1053000008063FF8063FF800000800000800000803
:10531000000000000000000000000000000003008A
:105320000003002001002001002003063FFE063F8D
:10533000FC00000000000000000000000004000865
:1053400007FFF80FFFF8000188000300002FC000DE
:1053500038F8002038002008000008000000000095
:105360000000000004000804000804000807FFF81B
:105370000FFFF8000008000008000008000000000F
:105380000000002008003FF8003FF800100800204F
:1053900000003FF8003FF8001008002000003FF830
:1053A000003FF8000008000000002008003FF8005F
:1053B0003FF8001008001000002000002008003F07
:1053C000F8001FF80000080000000000000007C0FF
:1053D000000FF000183000300800200800200800FE
:1053E0003008001830000FF00007C0000000000077
:1053F00000002001003FFF003FFF001011002009C6
:10540000002008002008003038001FF0000FC00006
:1054100000000000000007C0001FF0003818002046
:1054200008002008002009001011001FFF003FFFA6
:1054300000000100000000200800200800200800F3
:105440003FF8003FF800080800100800200800207E
:1054500000003000003000000000000000000000EC
:10546000000C78001E1800330800230800210800F3
:1054700021880021980030F0003860000000000012
:105480000000200000200000200000FFF003FFF8D3
:105490000020080020080020080000300000000064
:1054A0000000000000002000003FF0007FF8000036
:1054B00018000008000008002010003FF8007FF0EE
:1054C000000010000000000000002000003000007C
:1054D0003C00003F800023F00000780000700023B3
:1054E00080003C00003000002000002000003C0054
:1054F000003FE00023F80000E0002700003E00002D
:105500003FE00021F80001E0003E00002000000024
:1055100000002008002008003838003E680027807E
:105520000003C8002CF800383800201800200800BC
:105530000000000000002000003003003C01003F9C
:10554000830023EC000070002380003C000020005A
:1055500000200000000000000000000000380800EB
:1055600020380020F80023E8002F88003E0800388B
:10557000080020180000700000000000000000007B
:105580000000000000000000000008000014001FE0
:10559000F7FC3000062000020000000000000000C0
:1055A00000000000000000000000000000000000FB
:1055B000FFFFFF00000000000000000000000000EE
:1055C00000000000000000002000023000061FF76D
:1055D000FC001400000800000000000000000000B3
:1055E0000000000000000000001800006000004003
:1055F000000040000020000010000008000004002F
:10560000000400000C00001000000000000000007A
:10561000000000000000000000000000000000008A
:10562000000000000000000000000000000000007A
:10563000000000000000000000000000000000006A
:10564000000000000000000000000000000000005A
:10565000000000000000000000000000000000004A
:10566000000007F000C007FFE1E007F001E00000E4
:1056700000C000000000000000000000000000006A
:10568000000000000000000000000000000000001A
:1056900000000020000001C00000078000001F0083
:1056A00000001E0000001C20000001C00000078058
:1056B00000001F0000001E0000001C000000000091
:1056C00000000000000000000000000000000018C2
:1056D0000C0000180C0000180FE0001FFC0003F87D
:1056E0000C0000180C0000180C0000180C0000182A
:1056F0000C0000180FE0001FFC0003F80C0000185D
:105700000C0000180C000000000000000000000069
:10571000000000000780007807C000FC0640010E72
:10572000002003070020020380200FFFFFFC02017E
:10573000C0200200E0600130704001F03F8000F0C6
:105740001F00000000000000000000FE000001FF3C
:1057500000000301800002008060030181C001FF9E
:10576000070000FE18000000E0000003BF00000C6E
:10577000FFC00071806001C1002003018060000053
:10578000FFC000003F000000000000001F000000FC
:105790007FC000FCC0C001FF80600303E020020264
:1057A000782002061E2003FC074001F00380000160
:1057B00003C000011C600001E02000010020000186
:1057C00000400000018000000000000000000020F8
:1057D00000001C6000001C4000001F8000000F0043
:1057E00000000000000000000000000000000000B9
:1057F00000000000000000000000000000000000A9
:105800000000000000000000000000000000000098
:105810000000000000000000000000000000000088
:105820000000000000000007F800003FFF000078C3
:1058300007C001C000E003000030040000080800B9
:105840000004100000020000000000000000100032
:10585000000208000004040000080300003001C03A
:1058600000E0007807C0003FFF000007F8000000DC
:105870000000000000000000000000000000000028
:105880000000000000000000000000000000000018
:105890000000000C1800000E3800000E3800000652
:1058A0003000000360000061438000FFFF80006162
:1058B00043000003600000063000000E3800000EB8
:1058C0003800000C1800000000000000000000007C
:1058D0000000000080000000800000008000000048
:1058E00080000000800000008000007FFF000000BA
:1058F00080000000800000008000000080000000A8
:105900008000000080000000000000000000000097
:105910000001000000E3000000E2000000FC0000C5
:1059200000780000000000000000000000000000FF
:105930000000000000000000000000000000000067
:105940000000000000000000000000000000000057
:105950008000000080000000800000008000000047
:105960008000000080000000800000008000000037
:105970008000000080000000800000008000000027
:105980008000000080000000000000000000000017
:105990000000000000C0000001E0000001E0000085
:1059A00000C0000000000000000000000000000037
:1059B00000000000000000000000000000000000E7
:1059C00000000000000000000000000000000000D7
:1059D000000C00000038000000E000000380000020
:1059E0000E00000038000000E00000038000000E00
:1059F00000000038000000E00000038000000E00FE
:105A0000000018000000000000000000000000007E
:105A10000000000FF800007FFF0000F00780018009
:105A200000C003000060020000200200002002000D
:105A3000002003000060018000C000E00380007FC0
:105A4000FF00000FF8000000000000000000000050
:105A50000000000000000080002000800020008086
:105A600000200080006001FFFFE003FFFFE0000076
:105A70000060000000200000002000000020000066
:105A80000000000000000000000000000000000016
:105A90000000007800E00098016001000260020050
:105AA0000460020008600200106002002060020032
:105AB0004060030080600183006001FE00E0007C24
:105AC000078000000000000000000000000000004F
:105AD000000000F0078001F007C001000040020054
:105AE0000020020100200201002002010020030327
:105AF00080200186804001FCC0C000787F800000CB
:105B00001E00000000000000000000000000000077
:105B1000080000003800000048000001880000066E
:105B20000800000C0810003008100040081001FFA9
:105B3000FFF003FFFFF003FFFFF00000081000007C
:105B40000810000008100000000000000000000025
:105B5000000000000780001F864003E100200302D0
:105B60000020030400200304002003040020030499
:105B7000002003060040030301C00301FF8003006F
:105B80007E00000000000000000000000000000097
:105B900000000007FC00003FFF000070C380008190
:105BA00080C0010100600302002002020020020206
:105BB0000020020200200203004001C180C000C09A
:105BC000FF8000007E0000000000000000000000D8
:105BD000000000F0000003C000000380000003008C
:105BE0000000030007E003003FE00301C0000306DC
:105BF00000000318000003600000038000000300A1
:105C00000000000000000000000000000000000094
:105C10001F0000783F8000FC60C0018EC040030779
:105C20008020020300200201802002018020020166
:105C3000C0200301E040018670C000FC3F80007876
:105C40001F00000000000000000000000000003FF6
:105C5000000000FF81C001C0C1C00100602002003F
:105C600020200200202002002020020020600200EC
:105C700040C00100C18000C18F00007FFE00001FF6
:105C8000F000000000000000000000000000000024
:105C90000000000000000000000000000000000004
:105CA0000000000300C0000781E0000781E000035E
:105CB00000C0000000000000000000000000000024
:105CC00000000000000000000000000000000000D4
:105CD00000000000000000000000000000000000C4
:105CE00000000006006600060078000000000000CA
:105CF00000000000000000000000000000000000A4
:105D00000000000000000000000000000000000093
:105D10000000000080000001C000000360000006D9
:105D20003000000C180000180C0000300600006065
:105D3000030000C0018001000040020000200400B8
:105D4000001000000000000000000000000000043F
:105D500010000004100000041000000410000004F3
:105D600010000004100000041000000410000004E3
:105D700010000004100000041000000410000004D3
:105D800010000004100000000000000000000000EF
:105D9000000004000010020000200100004000C0CC
:105DA0000180006003000030060000180C00000CA9
:105DB000180000063000000360000001C000000071
:105DC0008000000000000000000000000000000053
:105DD00000000078000001F8000002380000020016
:105DE0000000040000C0040079E0040081E0040128
:105DF00000C004030000020200000306000001FCD2
:105E0000000000F800000000000000000000000F8B
:105E1000F800003FFE000070078000C000C00101D4
:105E2000F8400307FC20021E042002300820022054
:105E30003020023FFC20013F044001800CC000E004
:105E40003180001FC20000000000000000200000A0
:105E50000060000003E000003E200003E020003E60
:105E6000200003E020000380200007FC2000003F0A
:105E7000E0000003FE2000003FE0000001E0000021
:105E800000200000002000000000000000000200D0
:105E900000200200002003FFFFE003FFFFE00201FB
:105EA0000020020100200201002002010020020166
:105EB0000020030300200186806001FCC0C000F8C0
:105EC0007F8000001F0000000000000000000007AD
:105ED000F800003FFF000070078000C000C0010014
:105EE0000040030000200200002002000020020009
:105EF00000200200002001000040018000C003C01B
:105F000001800030060000000000000000000200D8
:105F100000200200002003FFFFE003FFFFE002007B
:105F200000200200002002000020020000200300E8
:105F3000006001000040018000C000F00780007F89
:105F4000FE00000FF800000000000000000002004A
:105F500000200200002003FFFFE003FFFFE002013A
:105F600000200201002002010020020100200201A5
:105F7000002002038020020FE0200300006003C025
:105F800000E00060030000000000000000000200CC
:105F900000200200002003FFFFE003FFFFE00201FA
:105FA00000200201002002010000020100000201A5
:105FB00000000201000002038000030FE000030064
:105FC000000003C0000000600000000000000007A7
:105FD000F800003FFE000070078001C001C0010012
:105FE0000040030000200200002002000020020008
:105FF0000020010020200100204003C03F8000302D
:106000003F8000002000000020000200002002006D
:10601000002003FFFFE003FFFFE0020080200200FA
:10602000802000008000000080000000800002004E
:1060300080200200802003FFFFE003FFFFE002005A
:10604000002002000020000000000000000000000E
:1060500000000000000002000020020000200200FA
:1060600000200200002003FFFFE003FFFFE002002A
:10607000002002000020020000200200002000009A
:106080000000000000000000000000000000000010
