:020000040800F2
:100000003004002045010008D10E00088D060008CC
:10001000CD0E0008DD010008F11500080000000009
:10002000000000000000000000000000ED110008CA
:100030009503000800000000810F00082D13000840
:100040005F0100085F0100085F0100085F01000810
:100050005F0100085F0100085F0100085F01000800
:100060005F0100085F0100085F0100085F010008F0
:100070005F0100085F0100085F0100085F010008E0
:100080005F0100085F0100085F0100085F010008D0
:100090005F0100085F0100085F0100085F010008C0
:1000A0005F0100085F0100085F0100085F010008B0
:1000B0005F0100085F010008A51300085F01000848
:1000C0005F0100085F0100085F0100085F01000890
:1000D0005F0100085F0100085F0100085F01000880
:1000E000E50300085F0100085F0100085F010008E8
:1000F0005F0100085F0100085F0100085F01000860
:100100005F0100085F0100085F0100085F0100084F
:100110005F0100085F0100085F0100085F0100083F
:100120005F0100085F0100085F0100085F0100082F
:10013000DFF80CD000F040F800480047AD17000889
:10014000300400200648804706480047FEE7FEE7E7
:10015000FEE7FEE7FEE7FEE7FEE7FEE7FEE7FEE777
:10016000451300083101000840EA01039B0703D052
:1001700009E008C9121F08C0042AFAD203E011F8E6
:10018000013B00F8013B521EF9D2704730B50B46D7
:10019000014600202022012409E021FA02F59D42B7
:1001A00005D303FA02F5491B04FA02F52844151E8B
:1001B000A2F10102F1DC30BD064C074D06E0E0681B
:1001C00040F0010394E8070098471034AC42F6D39E
:1001D000FFF7B2FF7C1800089C18000800BFFEE77C
:1001E00010B5002400F038FA04E0601CC4B201200D
:1001F00000F0E6F84FF400610F4800F022FA08B969
:10020000642CF2DB642C01DB002010BD002404E030
:10021000601CC4B2012000F0D3F84FF4006106481E
:1002200000F00FFA08B1642CF2DB642C01DB002033
:10023000EBE70120E9E70000000C014010B50121C7
:10024000082000F0F9FE4FF40060074908801020F4
:10025000C87001208870054800F068F900F07EF849
:10026000FFF7BEFF10BD00000E000020000C014093
:1002700010B5002404E0601CC4B2012000F0A0F816
:100280004FF40061104800F0DCF908B1642CF2DB97
:10029000002404E0601CC4B2012000F091F84FF487
:1002A0000061094800F0CDF908B9642CF2DB1E208A
:1002B00000F086F84FF40061034800F0C2F908B17D
:1002C000012010BD0020FCE7000C014070B50024A7
:1002D000002506E06006040EFFF7CAFF0443681C11
:1002E000C5B2082DF6DB204670BD2DE9FC41054660
:1002F0000E461746984600F031F8FFF771FF0128C7
:1003000026D1002405E0FFF7E1FF0DF80400601C92
:10031000C4B2052CF7DB9DF800009DF801100844DD
:100320009DF8021008449DF8031008449DF804103D
:10033000884210D19DF8000030709DF8010088F8C7
:1003400000009DF8020028709DF80300387002E05C
:100350000020BDE8FC810120FBE7000010B500F0A3
:1003600087F94FF400610A4800F074F9142000F096
:1003700013F84FF40061064800F086F91E2000F0E3
:100380001FF84FF40061024800F064F910BD00004E
:10039000000C01407047000010B504460648046098
:1003A000064800F099FF00BF034800680028FBD111
:1003B0004FF0E021086110BD140000204019010039
:1003C00010B5044606480460482000F085FF00BFD1
:1003D000034800680028FBD14FF0E021086110BD00
:1003E0001400002010B54FF4805000F021F860B1E7
:1003F00000F0C8FD05A001F0FDF84FF4805000F0BA
:100400000BF84FF4805000F00DF810BDBDF8C8EBAC
:10041000D6D0B6CF0D0A0000014908607047000031
:1004200014040140014908607047000014040140B1
:10043000014600200022074B1B6803EA0102054B1E
:1004400014331B680B4013B10AB1012000E00020F7
:100450007047000000040140002123498279002AEE
:100460003AD00A46126803689A430B461A600A1D7E
:10047000126803689A430B1D1A60027911440A68D6
:1004800003681A430A60184A0832126803689A43DC
:10049000154B08331A601A1D126803689A43124BF1
:1004A0000C331A604279102A0ED11A1F12680368A1
:1004B0001A430D4B08331A601A1D126803681A4359
:1004C000094B0C331A600DE00749427911440A6860
:1004D00003681A430A6005E0027911440A68036858
:1004E0009A430A60704700000004014030B50022C2
:1004F0008B071C0F0F2303FA04F20B4B8C1053F8DD
:1005000024309343084C8D1044F8253023468C103A
:1005100053F824308C07240F00FA04F42343024CD0
:100520008D1044F8253030BD080001402DE9F04120
:10053000024600250026002000230024002791F811
:1005400003C00CF00F0591F803C00CF0100CBCF1C7
:10055000000F03D091F802C04CEA050591F800C0E5
:10056000BCF1000F31D0146800202BE04FF0010CDB
:100570000CFA00F3B1F800C00CEA03069E4220D149
:1005800083004FF00F0C0CFA03F7BC4305FA03FC91
:100590004CEA040491F803C0BCF1280F06D14FF0D7
:1005A000010C0CFA00FCC2F814C00AE091F803C078
:1005B000BCF1480F05D14FF0010C0CFA00FCC2F859
:1005C00010C0401C0828D1D31460B1F800C0BCF1A1
:1005D000FF0F34DD546800202EE000F1080C4FF0CE
:1005E000010808FA0CF3B1F800C00CEA03069E42B9
:1005F00021D183004FF00F0C0CFA03F7BC4305FA2E
:1006000003FC4CEA040491F803C0BCF1280F05D1A7
:1006100000F1080C08FA0CF8C2F8148091F803C035
:10062000BCF1480F07D100F1080C4FF0010808FA9F
:100630000CF8C2F81080401C0828CED35460BDE8E6
:10064000F0810246002093680B400BB1012000E0CE
:10065000002070474161704710B504200249C870FE
:100660000248FFF763FF10BD0E000020000C0140A0
:1006700010B510200249C8700248FFF757FF10BD9F
:100680000E000020000C01400161704700BFFEE732
:100690001FB50121084600F0CFFC0121082000F021
:1006A000CBFC4FF48050ADF8000004208DF803001F
:1006B00003208DF8020069461148FFF737FF0C212F
:1006C0000120FFF713FF4FF48050029000208DF8B7
:1006D0000C000C208DF80D0001208DF80E0002A8F2
:1006E000FFF7BAFE28208DF8040001208DF80500E0
:1006F0008DF806008DF8070001A800F0FFFB1FBD74
:10070000000C014008B501210C2000F095FC1020E0
:10071000ADF8000003208DF8020010208DF80300D2
:1007200069460648FFF702FF4FF40040ADF80000AD
:1007300069460348FFF7FAFE08BD000000080140C3
:10074000000C014000B587B00121080300F074FCE3
:1007500001210C2000F070FC4020ADF804000320C3
:100760008DF8060018208DF8070001A92648FFF72C
:10077000DDFE8020ADF8040001A92348FFF7D6FE76
:100780002020ADF8040001A91F48FFF7CFFE4FF469
:100790000050ADF8040003208DF8060010208DF8FD
:1007A000070001A91948FFF7C1FE10211648FFF7FD
:1007B0006BFF0021164800F0E1FC0020ADF80800B6
:1007C0004FF48270ADF80A000020ADF80C00022052
:1007D000ADF80E000020ADF810004FF40070ADF839
:1007E00012002820ADF814000020ADF816000720F4
:1007F000ADF8180002A9064800F0DAFC012104480F
:1008000000F0BCFC07B000BD00080140000C014036
:100810000030014030B500210022002300BF0BE072
:10082000002206E0C82300BF1C1EA3F10103FBD178
:10083000521C8242F6D3491C0529F1D330BD10B5B4
:10084000FFF760FFFFF724FFFFF77CFF00F0FAFAE5
:1008500000F0CCFA10BD000086B000240020059006
:10086000049003900290FFF7EAFFFFF7E7FC10B94E
:1008700044A000F0BFFE4DA000F0BCFE52A000F06E
:10088000B9FE56A000F0B6FE59A000F0B3FE5DA080
:1008900000F0B0FE60A000F0ADFE002063490870DB
:1008A0006FE002AB03AA04A905A8FFF71EFD58B12B
:1008B0009DF8080000909DF810309DF80C209DF8E0
:1008C00014105BA000F096FE58480078102818D04D
:1008D00003DC48B101284ED104E011284CD0312866
:1008E00049D100E000BF4BE001205049087000F002
:1008F0001DFC28B931204D49087054A000F07AFE43
:100900003EE000F091F90446214652A000F072FE4C
:10091000062C2AD2DFE804F029030C151D2550A06F
:1009200000F068FE4FF480715248FFF793FE1DE01F
:1009300051A000F05FFE4FF480714E48FFF7A4FE17
:1009400014E052A000F056FE04215548FFF79CFE2B
:100950000CE054A000F04EFE04215148FFF77AFE4F
:1009600004E054A000F046FE00E000BF00BF0020FD
:100970002E49087004E000BF00202C49087000BF19
:1009800000BF8EE70D0A204545524F5221205448A2
:100990004520444854313120484153204E4F205285
:1009A0004553504F4E442E2E2E0000000D0A205469
:1009B0004845204448543131204841532052455342
:1009C000504F4E440D0A0000312E206B6169207497
:1009D00061692064656E670D0A000000322E206791
:1009E00075616E207461692064656E670D0A000090
:1009F000332E206B61692066656E67207368616EB7
:100A00000D0A0000342E206775616E2066656E67E2
:100A1000207368616E0D0A00352E207A6875616E4C
:100A20006720746169200D0A000000000A000020A0
:100A30000D0A2074656D703A25642E25642C687546
:100A40006D693A25642E2564200D0A006572726F67
:100A5000000000000D0ACAB6B1F0C2EB3A256400EE
:100A6000206B61692066656E6720207368616E0D7A
:100A70000A000000000801406775616E202066656D
:100A80006E6720207368616E0D0A00006775616EE5
:100A900020746169202064656E670D0A0000000003
:100AA000001401406B6169207461692064656E67A0
:100AB0000D0A00007A6875616E67207461690D0A1D
:100AC0000000000070B59CB06422294903A8FFF71C
:100AD0004BFB28A103C9CDE901010126002441E017
:100AE00000F08DF808B900263EE001A8015DC120A4
:100AF00000F05EF90021C32000F05AF9042108201B
:100B000000F056F90120FFF785FE0021082000F0D3
:100B10004FF90120FFF77EFE002512E004EB840070
:100B200003A901EB8000405D00B90CE004EB8400F8
:100B300003AA02EB8000415D052000F039F9681C32
:100B4000C5B2142DEADB00BF2946B92000F030F908
:100B5000FF21B22000F02CF90421372000F028F901
:100B6000601CC4B2052CBBDB00BF30461CB070BD9E
:100B700018180008010203040500000010B5412107
:100B8000352000F015F909211C2000F011F9202171
:100B9000BD2000F00DF90121082000F009F9052021
:100BA000FFF738FE0021082000F002F90520FFF7CA
:100BB00031FE00F024F808B9002010BDFF21B2205A
:100BC00000F0F6F80621372000F0F2F80621372071
:100BD00000F0EEF80520FFF71DFE0B211C2000F0B1
:100BE000E7F81021292000F0E3F80021BD2000F0F3
:100BF000DFF80120E1E710B500F01CF810BD70B57A
:100C0000002500240BE0B22000F0B2F8212801D129
:100C1000012506E00A20FFF7FDFD601CC4B20A2C86
:100C2000F1DB00BF284670BD10B5C52000F0A0F86C
:100C300010BD000010B508201949087000F032F806
:100C40000021BD2000F0B4F84821172000F0B0F8D2
:100C50000520FFF7DFFD80213C2000F0A9F80721E7
:100C60003E2000F0A5F8FF21382000F0A1F8072170
:100C70003A2000F09DF80021402000F099F808216A
:100C8000422000F095F80021442000F091F808215E
:100C9000462000F08DF80120FFF7BCFD10BD0000DC
:100CA0000B00002010B5062000F062F83521172057
:100CB00000F07EF80520FFF7ADFD062000F058F8A3
:100CC0000321892000F074F80520FFF7A3FD4321DC
:100CD000CF2000F06DF80520FFF79CFD0221CB200E
:100CE00000F066F80B21112000F062F81F48007830
:100CF000402810D100211E2000F05AF80F211920A1
:100D000000F056F818211B2000F052F82C211D206D
:100D100000F04EF80FE000211E2000F049F83F21BE
:100D2000192000F045F848211B2000F041F81F2150
:100D30001D2000F03DF80520FFF76CFD0421CD20BB
:100D400000F036F84C21172000F032F80120FFF7B0
:100D500061FD0021B92000F02BF84F21CF2000F0D9
:100D600027F8FF216F2000F023F810BD0B000020B2
:100D700070B5044610210C48FFF76CFC4FF400518D
:100D80000A48FFF767FC052000F02AFD204600F026
:100D900027FD002000F024FD054610210248FFF742
:100DA00073FC284670BD000000080140000C0140A3
:100DB00070B505460C4610210A48FFF74BFC4FF46E
:100DC00000510948FFF746FC042000F009FD2846C1
:100DD00000F006FD204600F003FD10210148FFF75A
:100DE00053FC70BD00080140000C014010B54FF4E9
:100DF00000411248FFF748FC6420FFF70BFD4FF459
:100E000000410E48FFF726FC6420FFF703FD4FF476
:100E100000410A48FFF738FC6420FFF7FBFC102173
:100E20000748FFF717FC6420FFF7F4FC1021044883
:100E3000FFF72AFC6420FFF7EDFC10BD000C014019
:100E40000008014008B50121A42000F0F5F84FF496
:100E50008070ADF8000003208DF8020010208DF89E
:100E6000030069461648FFF761FB0420ADF8000057
:100E700069461448FFF75AFB4FF48070ADF8000044
:100E800069461148FFF752FB4FF40070ADF80000BF
:100E900069460D48FFF74AFB4FF480710848FFF799
:100EA000D9FB04210748FFF7D5FB4FF480710648B2
:100EB000FFF7D0FB4FF400710348FFF7CBFB08BDF1
:100EC0000008014000140140001C014000BFFEE783
:100ED000704708B54FF4E06000F048F825208DF821
:100EE000000000208DF8010001208DF802008DF82F
:100EF0000300684600F002F808BD000070B500214C
:100F000000230F22C47804B3154C246804F4E06471
:100F1000C4F5E064210AC1F10403CA40447804FA2C
:100F200003F184781440214309010E4C0678A15541
:100F3000047804F01F050124AC4005786D11AD0064
:100F400005F1E025C5F8004109E0047804F01F052B
:100F50000124AC40044D0678761145F8264070BD5A
:100F60000CED00E000E400E080E100E00249014314
:100F7000024A1160704700000000FA050CED00E025
:100F80007047000010B500242B20FFF7F1FE284920
:100F9000087000212920FFF70BFF00210220FFF736
:100FA00007FF2348007800F01000C8B1B220FFF717
:100FB000DFFE212814D1BF20FFF7DAFE35280FD13C
:100FC000BA20FFF7D5FE0446002C05DD042C03DC17
:100FD00010201849087006E011201649087002E038
:100FE00011201449087000212B20FFF7E1FE002199
:100FF0001C20FFF7DDFE00212920FFF7D9FE00218C
:101000000220FFF7D5FE00212B20FFF7D1FE0021A3
:10101000BA20FFF7CDFE0021BC20FFF7C9FE012159
:101020000820FFF7C5FE00210820FFF7C1FE10BD14
:101030000C0000200A00002029B1064A92690243F0
:10104000044B9A6104E0034A92698243014B9A611E
:10105000704700000010024030B50021002200243B
:1010600000232D4D6D6805F00C0121B1042905D038
:10107000082923D105E0294D056022E0274D0560B0
:101080001FE0254D6D6805F47012234D6D6805F461
:101090008034022505EB92421CB9214D5543056071
:1010A0000BE01D4D6D6805F400351DB11C4D554319
:1010B000056002E0194D5543056002E0174D0560DB
:1010C00000BF00BF144D6D6805F0F0010909154D12
:1010D0006B5C0568DD4045600F4D6D6805F4E061AF
:1010E000090A104D6B5C4568DD4085600A4D6D68EE
:1010F00005F46051C90A0B4D6B5C4568DD40C56065
:10110000054D6D6805F44041890B074D6B5CC56862
:10111000B5FBF3F5056130BD0010024000127A0006
:1011200000093D00180000202800002070B50024B0
:10113000002500BF1DE0FFF75EFD6420FFF76AFB9E
:10114000FFF7C0FC28B9FFF751FE3220FFF762FB22
:101150000DE00A20FFF75EFBFFF710FD28B9FFF74F
:1011600045FE3220FFF756FB01E0012503E0601C3D
:10117000C4B2052CDFDB00BF284670BD21B1028858
:1011800042F04002028004E002884FF6BF731A402A
:10119000028070470246002013890B400BB10120EA
:1011A00000E00020704701468889704781817047C0
:1011B00010B50022028802F441520B884C88234368
:1011C0008C882343CC8823430C8923434C892343B5
:1011D0008C892343CC8923431A430280838B4FF2AB
:1011E000FF74234083830B8A038210BD704710B5C0
:1011F00000F002F810BD00000CB500200190009036
:101200003348006840F480303149086000BF3048FE
:10121000006800F4003000900198401C0190009894
:1012200018B90198B0F5A06FF1D12948006800F411
:10123000003010B10120009001E0002000900098E3
:10124000012843D12348006840F01000214908607C
:101250000846006820F0030008600846006840F077
:10126000020008601A48406819494860084640680A
:1012700048600846406840F480604860084640681E
:1012800020F47C1048600846406840F4E81048604C
:101290000846006840F08070086000BF0C48006895
:1012A00000F000700028F9D00948406820F00300E1
:1012B000074948600846406840F00200486000BFA7
:1012C0000348406800F00C000828F9D10CBD00006C
:1012D000001002400020024030B50146B1F1807F8D
:1012E00001D3012030BD21F07F40401E4FF0E022AD
:1012F000506150170F22002807DA13071D0E094B03
:1013000000F00F04241F1D5503E013071C0E064BAD
:101310001C5400BF00204FF0E022906107201061B4
:101320000020DFE718ED00E000E400E0044800687A
:1013300020B103480068401E014908607047000062
:101340001400002010B51348006840F00100114956
:10135000086008464068104908400E494860084641
:1013600000680E4908400B4908600846006820F4F0
:10137000802008600846406820F4FE0048604FF472
:101380001F008860FFF733FF4FF0006004490860DA
:1013900010BD0000001002400000FFF8FFFFF6FE45
:1013A00008ED00E01148008800F00100E0B14FF6C0
:1013B000FE700E4908800E480068401C0C49086009
:1013C0000C480078401C0B4908700B480078401C02
:1013D0000949087009480078401C08490870084805
:1013E0000078401C06490870704700001008004053
:1013F0000000002006000020070000200800002058
:101400000900002021B1828942F40052828104E067
:1014100082894DF6FF731A40828170470246002090
:10142000B1F5007F00D100BF13880B400BB1012044
:1014300000E000207047F0B5034600240026002598
:10144000002040F66A17B94200D100BF1846C1F328
:10145000421401F01F06012707FA06F5012C01D1FD
:101460000C3004E0022C01D1103000E014301AB12D
:1014700007682F43076002E00768AF430760F0BDCD
:101480002DE9F04786B005460E460024A24600BF6F
:10149000A1460027B08900B100BF2F462C8A4CF628
:1014A000FF700440F08804432C82AC894EF6F310A0
:1014B0000440B08831890843718908430443AC81F2
:1014C000AC8A4FF6FF400440B0890443AC8201A8C7
:1014D000FFF7C2FD1F48874202D1DDF810A001E0EE
:1014E000DDF80CA0A88900F4004040B10AEBCA0066
:1014F00000EB0A1031684900B0FBF1F807E00AEB95
:10150000CA0000EB0A1031688900B0FBF1F86420D2
:10151000B8FBF0F004012009642101FB1089A889BF
:1015200000F4004040B1322000EBC900B0FBF1F004
:1015300000F00700044308E0322000EB09106421AA
:10154000B0FBF1F000F00F0004432C8106B0BDE8C1
:10155000F087000000380140C1F308028280704724
:1015600000B585B001218803FFF766FD0121042045
:10157000FFF762FD4FF40070ADF8100018208DF8F1
:10158000130003208DF8120004A91748FEF7CEFFC0
:101590004FF48060ADF8100004208DF8130004A90A
:1015A0001148FEF7C3FF4FF4E13000900020ADF882
:1015B0000400ADF80600ADF80800ADF80C000C20F2
:1015C000ADF80A0069460948FFF75AFF012240F2C8
:1015D00025510648FFF72FFF01210448FFF712FFAE
:1015E000FFF777FC05B000BD00080140003801405E
:1015F00000BFFEE70FB4054B10B503A9044A0298DB
:1016000000F018F810BC5DF814FB00008917000802
:101610002C00002002E008C8121F08C1002AFAD1DD
:1016200070477047002001E001C1121F002AFBD162
:10163000704700002DE9FF4F89B09B460446002506
:1016400006E025280BD05A460B999047641C6D1C68
:1016500020780028F5D10DB02846BDE8F08F00278E
:10166000B8460122474900E0074314F8013F203BF8
:1016700002FA03F00842F7D120782E2819D114F885
:10168000010F47F004072A280ED06FF02F022078B0
:10169000A0F1300109290CD808EB880102EB4101C7
:1016A00000EB0108641CF2E70A98641C50F8048BF4
:1016B0000A9020780028CED0642808D0692806D067
:1016C00075281ED05A460B9990476D1C58E00A9910
:1016D0004FF00A0901C90A91002802DA40422D217F
:1016E00002E0390504D52B218DF82010012103E0FB
:1016F000F90704D02021F7E78A4608AE0DE0002163
:10170000FAE70A994FF00A0901C90A91F7E7494631
:10171000FEF73CFD303106F8011D0028F7D1ADEB96
:10172000060000F12009780701D44FF00108C845F0
:1017300002DDA8EB090000E000208046002706E05B
:1017400008A85A46C05D0B9990476D1C7F1C5745F1
:10175000F6DB04E030205A460B9990476D1CB8F137
:101760000001A8F10108F5DC05E016F8010B5A4666
:101770000B9990476D1CB9F10001A9F10109F4DC46
:10178000641C65E70928010070B504460D46E1B206
:101790000548FFF7E1FE00BF40210348FFF73EFE8A
:1017A0000028F9D0204670BD00380140FFF7D8FE70
:1017B00003A0FFF71FFFFFF74FF800BFFEE7000091
:1017C0000D0A554E562D4C44333332302D5465732B
:1017D000745F426F6172642D56312E300D0A000025
:1017E00010B5044600BF02210A48FFF7D3FC0028C9
:1017F000F9D021460748FFF7D9FC00BF0121054871
:10180000FFF7C8FC0028F9D00248FFF7CCFCC0B2B3
:1018100010BD0000003001406B61692066656E6795
:10182000207368616E000000000000006775616E43
:101830002066656E67207368616E0000000000001E
:101840006775616E207461692064656E67000000D1
:10185000000000006B6169207461692064656E6737
:1018600000000000000000007A6875616E67207457
:101870006169000000000000000000009C180008E2
:10188000000000203000000014160008CC180008EA
:1018900030000020000400002416000800000000B2
:1018A0000000000000000000000000000000000038
:1018B00064000000000000000102030401020304B0
:0C18C000060708090204060800000000EA
:0400000508000131BD
:00000001FF
